{
  "contractName": "CoinFlip",
  "abi": [
    {
      "inputs": [],
      "payable": false,
      "stateMutability": "nonpayable",
      "type": "constructor",
      "signature": "constructor"
    },
    {
      "anonymous": false,
      "inputs": [
        {
          "indexed": false,
          "name": "result",
          "type": "string"
        }
      ],
      "name": "resultOfFlip",
      "type": "event",
      "signature": "0x2af52f5cce337034845e0f43ed096efd5d9e5af7c9988e3012131dab5a18423e"
    },
    {
      "anonymous": false,
      "inputs": [
        {
          "indexed": false,
          "name": "timestamp",
          "type": "uint256"
        },
        {
          "indexed": false,
          "name": "difficulty",
          "type": "uint256"
        },
        {
          "indexed": false,
          "name": "result",
          "type": "uint256"
        }
      ],
      "name": "calculOfRandom",
      "type": "event",
      "signature": "0xd1402e75d3f389af713a7551bb5e3595807d30bb64def5adaf0bc9184e0f32ee"
    },
    {
      "constant": true,
      "inputs": [],
      "name": "getBalance",
      "outputs": [
        {
          "name": "",
          "type": "uint256"
        }
      ],
      "payable": false,
      "stateMutability": "view",
      "type": "function",
      "signature": "0x12065fe0"
    },
    {
      "constant": true,
      "inputs": [
        {
          "name": "player",
          "type": "address"
        }
      ],
      "name": "getLastFlip",
      "outputs": [
        {
          "name": "",
          "type": "bool"
        }
      ],
      "payable": false,
      "stateMutability": "view",
      "type": "function",
      "signature": "0x1e6d5673"
    },
    {
      "constant": false,
      "inputs": [],
      "name": "flip",
      "outputs": [],
      "payable": true,
      "stateMutability": "payable",
      "type": "function",
      "signature": "0xcde4efa9"
    },
    {
      "constant": false,
      "inputs": [],
      "name": "deposit",
      "outputs": [],
      "payable": true,
      "stateMutability": "payable",
      "type": "function",
      "signature": "0xd0e30db0"
    }
  ],
  "bytecode": "0x608060405234801561001057600080fd5b50336000806101000a81548173ffffffffffffffffffffffffffffffffffffffff021916908373ffffffffffffffffffffffffffffffffffffffff160217905550610443806100606000396000f3fe608060405260043610610062576000357c0100000000000000000000000000000000000000000000000000000000900463ffffffff16806312065fe0146100675780631e6d567314610092578063cde4efa9146100fb578063d0e30db014610105575b600080fd5b34801561007357600080fd5b5061007c61010f565b6040518082815260200191505060405180910390f35b34801561009e57600080fd5b506100e1600480360360208110156100b557600080fd5b81019080803573ffffffffffffffffffffffffffffffffffffffff16906020019092919050505061012e565b604051808215151515815260200191505060405180910390f35b610103610184565b005b61010d610380565b005b60003073ffffffffffffffffffffffffffffffffffffffff1631905090565b6000600160008373ffffffffffffffffffffffffffffffffffffffff1673ffffffffffffffffffffffffffffffffffffffff16815260200190815260200160002060009054906101000a900460ff169050919050565b600061018e610382565b60ff169050600034905060006002838115156101a657fe5b0614156102bb573373ffffffffffffffffffffffffffffffffffffffff166108fc600283029081150290604051600060405180830381858888f193505050501580156101f6573d6000803e3d6000fd5b5060018060003373ffffffffffffffffffffffffffffffffffffffff1673ffffffffffffffffffffffffffffffffffffffff16815260200190815260200160002060006101000a81548160ff0219169083151502179055507f2af52f5cce337034845e0f43ed096efd5d9e5af7c9988e3012131dab5a18423e6040518080602001828103825260058152602001807f6761676e6500000000000000000000000000000000000000000000000000000081525060200191505060405180910390a161037c565b6000600160003373ffffffffffffffffffffffffffffffffffffffff1673ffffffffffffffffffffffffffffffffffffffff16815260200190815260200160002060006101000a81548160ff0219169083151502179055507f2af52f5cce337034845e0f43ed096efd5d9e5af7c9988e3012131dab5a18423e6040518080602001828103825260048152602001807f706572640000000000000000000000000000000000000000000000000000000081525060200191505060405180910390a15b5050565b565b60008060fb4244604051602001808381526020018281526020019250505060405160208183030381529060405280519060200120600190048115156103c357fe5b0690507fd1402e75d3f389af713a7551bb5e3595807d30bb64def5adaf0bc9184e0f32ee424483604051808481526020018381526020018260ff168152602001935050505060405180910390a1809150509056fea165627a7a72305820efefcb5e99c4b5b9589315754acea6342717fc1c54fe9e3f91ae92ddee94ed130029",
  "source": "pragma solidity ^0.5.0;\n\ncontract CoinFlip {\n    address owner;\n    mapping (address => bool) lastFlip;\n\n    event resultOfFlip(string result);\n    event calculOfRandom(uint timestamp, uint difficulty, uint result);\n\n    constructor() public {\n        owner = msg.sender;\n    }\n\n    function getBalance() view public returns(uint){\n        return address(this).balance;\n    }\n\n    function getLastFlip(address player) view public returns(bool){\n        return lastFlip[player];\n    }\n\n    function random() private returns (uint8) {\n       uint8 result = uint8(uint256(keccak256(abi.encodePacked(block.timestamp, block.difficulty)))%251); \n\t   emit calculOfRandom(block.timestamp, block.difficulty, result);\n       return result;\n   }\n\n    //   NEED TO SECURE THIS\n    function flip() payable public{\n        uint time = random();\n        uint bet = msg.value;\n\n        if(time % 2 == 0){\n            msg.sender.transfer(bet*2);\n            lastFlip[msg.sender] = true;\n    \t    emit resultOfFlip(\"gagne\");\n        } else {\n            lastFlip[msg.sender] = false;\n\t        emit resultOfFlip(\"perd\");\n        }\n    }\n\n    function deposit() payable public{\n\n    }\n}",
  "sourcePath": "/home/gabba/git/docker-dev-ethereum/flip-coin/contracts/CoinFlip.sol",
  "compiler": {
    "name": "solc",
    "version": "0.5.0+commit.1d4f565a.Emscripten.clang"
  },
  "schemaVersion": "3.0.5",
  "updatedAt": "2019-03-29T08:09:56.047Z",
  "devdoc": {
    "methods": {}
  },
  "userdoc": {
    "methods": {}
  }
}