{
  "contractName": "CoinFlip",
  "abi": [
    {
      "inputs": [],
      "payable": true,
      "stateMutability": "payable",
      "type": "constructor",
      "signature": "constructor"
    },
    {
      "constant": true,
      "inputs": [],
      "name": "getContractBalance",
      "outputs": [
        {
          "name": "",
          "type": "uint256"
        }
      ],
      "payable": false,
      "stateMutability": "view",
      "type": "function",
      "signature": "0x6f9fb98a"
    },
    {
      "constant": true,
      "inputs": [],
      "name": "getBankBalance",
      "outputs": [
        {
          "name": "",
          "type": "uint256"
        }
      ],
      "payable": false,
      "stateMutability": "view",
      "type": "function",
      "signature": "0x7b83b50b"
    },
    {
      "constant": true,
      "inputs": [
        {
          "name": "player",
          "type": "address"
        }
      ],
      "name": "getUserHistoric",
      "outputs": [
        {
          "name": "",
          "type": "int256"
        }
      ],
      "payable": false,
      "stateMutability": "view",
      "type": "function",
      "signature": "0x63fca909"
    },
    {
      "constant": true,
      "inputs": [
        {
          "name": "player",
          "type": "address"
        }
      ],
      "name": "getLastFlip",
      "outputs": [
        {
          "name": "",
          "type": "bool"
        }
      ],
      "payable": false,
      "stateMutability": "view",
      "type": "function",
      "signature": "0x1e6d5673"
    },
    {
      "constant": false,
      "inputs": [],
      "name": "flip",
      "outputs": [],
      "payable": true,
      "stateMutability": "payable",
      "type": "function",
      "signature": "0xcde4efa9"
    },
    {
      "constant": false,
      "inputs": [],
      "name": "sendMoneyToTheBank",
      "outputs": [],
      "payable": true,
      "stateMutability": "payable",
      "type": "function",
      "signature": "0xbb190640"
    }
  ],
  "bytecode": "0x60806040527f7fffffffffffffffffffffffffffffffffffffffffffffffffffffffffffffff6001556001805401600255336000806101000a81548173ffffffffffffffffffffffffffffffffffffffff021916908373ffffffffffffffffffffffffffffffffffffffff160217905550346004819055506000600360003373ffffffffffffffffffffffffffffffffffffffff1673ffffffffffffffffffffffffffffffffffffffff16815260200190815260200160002060006101000a81548160ff02191690831515021790555061073f806100de6000396000f3fe608060405260043610610078576000357c0100000000000000000000000000000000000000000000000000000000900463ffffffff1680631e6d56731461007d57806363fca909146100e65780636f9fb98a1461014b5780637b83b50b14610176578063bb190640146101a1578063cde4efa9146101ab575b600080fd5b34801561008957600080fd5b506100cc600480360360208110156100a057600080fd5b81019080803573ffffffffffffffffffffffffffffffffffffffff1690602001909291905050506101b5565b604051808215151515815260200191505060405180910390f35b3480156100f257600080fd5b506101356004803603602081101561010957600080fd5b81019080803573ffffffffffffffffffffffffffffffffffffffff16906020019092919050505061020b565b6040518082815260200191505060405180910390f35b34801561015757600080fd5b50610160610254565b6040518082815260200191505060405180910390f35b34801561018257600080fd5b5061018b610273565b6040518082815260200191505060405180910390f35b6101a961027d565b005b6101b36102ea565b005b6000600360008373ffffffffffffffffffffffffffffffffffffffff1673ffffffffffffffffffffffffffffffffffffffff16815260200190815260200160002060009054906101000a900460ff169050919050565b6000600560008373ffffffffffffffffffffffffffffffffffffffff1673ffffffffffffffffffffffffffffffffffffffff168152602001908152602001600020549050919050565b60003073ffffffffffffffffffffffffffffffffffffffff1631905090565b6000600454905090565b3373ffffffffffffffffffffffffffffffffffffffff166000809054906101000a900473ffffffffffffffffffffffffffffffffffffffff1673ffffffffffffffffffffffffffffffffffffffff161415156102d857600080fd5b34600460008282540192505081905550565b346706f05b59d3b20000111515610369576040517f08c379a00000000000000000000000000000000000000000000000000000000081526004018080602001828103825260028152602001807f2d3100000000000000000000000000000000000000000000000000000000000081525060200191505060405180910390fd5b6000341115156103e1576040517f08c379a00000000000000000000000000000000000000000000000000000000081526004018080602001828103825260028152602001807f2d3200000000000000000000000000000000000000000000000000000000000081525060200191505060405180910390fd5b60006002340290508060045410151515610463576040517f08c379a00000000000000000000000000000000000000000000000000000000081526004018080602001828103825260028152602001807f2d3300000000000000000000000000000000000000000000000000000000000081525060200191505060405180910390fd5b60025481138015610475575060015481125b15156104e9576040517f08c379a00000000000000000000000000000000000000000000000000000000081526004018080602001828103825260028152602001807f2d3400000000000000000000000000000000000000000000000000000000000081525060200191505060405180910390fd5b60006104f36106c8565b60ff169050600060028281151561050657fe5b06141561060e57346004600082825403925050819055503373ffffffffffffffffffffffffffffffffffffffff166108fc839081150290604051600060405180830381858888f19350505050158015610563573d6000803e3d6000fd5b5081600560003373ffffffffffffffffffffffffffffffffffffffff1673ffffffffffffffffffffffffffffffffffffffff168152602001908152602001600020600082825401925050819055506001600360003373ffffffffffffffffffffffffffffffffffffffff1673ffffffffffffffffffffffffffffffffffffffff16815260200190815260200160002060006101000a81548160ff0219169083151502179055506106c4565b3460046000828254019250508190555034600560003373ffffffffffffffffffffffffffffffffffffffff1673ffffffffffffffffffffffffffffffffffffffff168152602001908152602001600020600082825403925050819055506000600360003373ffffffffffffffffffffffffffffffffffffffff1673ffffffffffffffffffffffffffffffffffffffff16815260200190815260200160002060006101000a81548160ff0219169083151502179055505b5050565b60008060fb42446040516020018083815260200182815260200192505050604051602081830303815290604052805190602001206001900481151561070957fe5b069050809150509056fea165627a7a72305820ea0998cd9a34f426605143613b76dec9954c0481839c521e063de24bc8672d710029",
  "source": "pragma solidity ^0.5.0;\n\ncontract CoinFlip {\n\taddress owner;\n\tint256 private maxInt = 57896044618658097711785492504343953926634992332820282019728792003956564819967;\n\tint256 private minInt = maxInt + 1;\n\tmapping (address => bool) lastFlip;\n\tuint256 contractBalance;\n\tmapping (address => int256) userHistoric;\n\n\tconstructor() public payable{\n\t\towner = msg.sender;\n\n\t\t// Contract address\n\t\tcontractBalance = msg.value;\n\t\tlastFlip[msg.sender] = false;\n\t}\n\n\tmodifier onlyOwner{\n\t\trequire(owner == msg.sender);\n\t\t_;\n\t}\n\n\t// Get the total amout of all the player ether in this contract\n\tfunction getContractBalance() view public returns(uint256){\n\t\treturn address(this).balance;\n\t}\n\n\tfunction getBankBalance() view public returns(uint256){\n\t\treturn contractBalance;\n\t}\n\n\t// Get the balance of the user\n\tfunction getUserHistoric(address player) view public returns(int256){\n\t\treturn userHistoric[player];\n\t}\n\n\t// Get the result of the player flip\n\tfunction getLastFlip(address player) view public returns(bool){\n\t\treturn lastFlip[player];\n\t}\n\n\t/*\n\t* As the timestamp can be control by the miner we need to set\n\t* a max limit per bet in the flip function.\n\t*/\n\tfunction pseudoRandom() private returns (uint8) {\n\t\tuint8 result = uint8(uint256(keccak256(abi.encodePacked(block.timestamp, block.difficulty)))%251); \n\t\treturn result;\n\t}\n\n\t/*\tError Cases\n\t*\n\t*\terror -1 Bet can't be more than 0.5\n\t*\terror -2 user bet could't be null\n\t*\terror -3 Contract address don't have enought found to pay the user\n\t*\terror -4 The value is too big regarding to the previous contract rules\n\t*\t\t\t and it will make fail the implicit cast for the player historic\n\t*\n\t*/\n\n\tfunction flip() payable public{\n\t\t\n\t\trequire(0.5 ether > msg.value, \"-1\");\n\t\trequire(msg.value > 0, \"-2\");\n\t\t\n\t\tuint256 jackpotValue = msg.value * 2;\n\t\trequire(contractBalance >= jackpotValue, \"-3\");\n\n\t\t/*\n\t\t*\n\t\t*\tThe value is too big regarding to the previous contract rules\n\t\t*\tand it will make fail the implicit cast for the player historic\n\t\t* \n\t\t*/\n\t\trequire(int256(jackpotValue) > minInt && int256(jackpotValue) < maxInt, \"-4\");\n\n\n\t\t// Run the pseudorandom function\n\t\tuint randomResult = pseudoRandom();\n\n\t\tif(randomResult % 2 == 0){\n\t\t\tcontractBalance -= msg.value;\n\t\t\tmsg.sender.transfer(jackpotValue);\n\t\t\tuserHistoric[msg.sender] += int256(jackpotValue);\n\t\t\tlastFlip[msg.sender] = true;\n\t\t} else {\n\t\t\tcontractBalance += msg.value;\n\t\t\tuserHistoric[msg.sender] -= int256(msg.value);\n\t\t\tlastFlip[msg.sender] = false;\n\t\t}\n\t}\n\n\tfunction sendMoneyToTheBank() payable public onlyOwner{\n\t\tcontractBalance += msg.value;\n\t}\n}",
  "sourcePath": "/home/gabba/git/docker-dev-ethereum/flip-coin/contracts/CoinFlip.sol",
  "compiler": {
    "name": "solc",
    "version": "0.5.0+commit.1d4f565a.Emscripten.clang"
  },
  "schemaVersion": "3.0.5",
  "updatedAt": "2019-04-14T04:08:30.175Z",
  "devdoc": {
    "methods": {}
  },
  "userdoc": {
    "methods": {}
  }
}