{
  "contractName": "CoinFlip",
  "abi": [
    {
      "constant": true,
      "inputs": [
        {
          "name": "",
          "type": "uint256"
        }
      ],
      "name": "listOfBank",
      "outputs": [
        {
          "name": "",
          "type": "address"
        }
      ],
      "payable": false,
      "stateMutability": "view",
      "type": "function",
      "signature": "0x65951071"
    },
    {
      "constant": true,
      "inputs": [],
      "name": "owner",
      "outputs": [
        {
          "name": "",
          "type": "address"
        }
      ],
      "payable": false,
      "stateMutability": "view",
      "type": "function",
      "signature": "0x8da5cb5b"
    },
    {
      "inputs": [],
      "payable": true,
      "stateMutability": "payable",
      "type": "constructor",
      "signature": "constructor"
    },
    {
      "constant": false,
      "inputs": [],
      "name": "createBank",
      "outputs": [],
      "payable": true,
      "stateMutability": "payable",
      "type": "function",
      "signature": "0x5204f7c3"
    },
    {
      "constant": true,
      "inputs": [],
      "name": "getListOfBank",
      "outputs": [
        {
          "name": "",
          "type": "address[]"
        }
      ],
      "payable": false,
      "stateMutability": "view",
      "type": "function",
      "signature": "0xf9727975"
    },
    {
      "constant": true,
      "inputs": [
        {
          "name": "_bankAddr",
          "type": "address"
        }
      ],
      "name": "getBankBalance",
      "outputs": [
        {
          "name": "",
          "type": "uint256"
        }
      ],
      "payable": false,
      "stateMutability": "view",
      "type": "function",
      "signature": "0x04cdb171"
    },
    {
      "constant": true,
      "inputs": [
        {
          "name": "player",
          "type": "address"
        }
      ],
      "name": "getUserHistory",
      "outputs": [
        {
          "name": "",
          "type": "int256"
        }
      ],
      "payable": false,
      "stateMutability": "view",
      "type": "function",
      "signature": "0x4fb3d3b1"
    },
    {
      "constant": true,
      "inputs": [
        {
          "name": "player",
          "type": "address"
        }
      ],
      "name": "getLastFlip",
      "outputs": [
        {
          "name": "",
          "type": "bool"
        }
      ],
      "payable": false,
      "stateMutability": "view",
      "type": "function",
      "signature": "0x1e6d5673"
    },
    {
      "constant": false,
      "inputs": [
        {
          "name": "_bankAddr",
          "type": "address"
        }
      ],
      "name": "flip",
      "outputs": [],
      "payable": true,
      "stateMutability": "payable",
      "type": "function",
      "signature": "0xc7f5abdc"
    },
    {
      "constant": false,
      "inputs": [
        {
          "name": "_bankAddr",
          "type": "address"
        }
      ],
      "name": "sendMoneyToTheBank",
      "outputs": [],
      "payable": true,
      "stateMutability": "payable",
      "type": "function",
      "signature": "0x88e02aa6"
    },
    {
      "constant": false,
      "inputs": [
        {
          "name": "_bankAddr",
          "type": "address"
        }
      ],
      "name": "withdrawBankAccount",
      "outputs": [],
      "payable": false,
      "stateMutability": "nonpayable",
      "type": "function",
      "signature": "0xb84fb443"
    },
    {
      "constant": false,
      "inputs": [],
      "name": "destroyContract",
      "outputs": [],
      "payable": false,
      "stateMutability": "nonpayable",
      "type": "function",
      "signature": "0x092a5cce"
    },
    {
      "constant": true,
      "inputs": [],
      "name": "isOwner",
      "outputs": [
        {
          "name": "status",
          "type": "bool"
        }
      ],
      "payable": false,
      "stateMutability": "view",
      "type": "function",
      "signature": "0x8f32d59b"
    }
  ],
  "bytecode": "0x60806040527f7fffffffffffffffffffffffffffffffffffffffffffffffffffffffffffffff6001556001805401600255336000806101000a81548173ffffffffffffffffffffffffffffffffffffffff021916908373ffffffffffffffffffffffffffffffffffffffff16021790555060003411151561007f57600080fd5b34600460003373ffffffffffffffffffffffffffffffffffffffff1673ffffffffffffffffffffffffffffffffffffffff1681526020019081526020016000208190555060063390806001815401808255809150509060018203906000526020600020016000909192909190916101000a81548173ffffffffffffffffffffffffffffffffffffffff021916908373ffffffffffffffffffffffffffffffffffffffff160217905550506000600360003373ffffffffffffffffffffffffffffffffffffffff1673ffffffffffffffffffffffffffffffffffffffff16815260200190815260200160002060006101000a81548160ff021916908315150217905550610ee9806101906000396000f3fe6080604052600436106100ba576000357c0100000000000000000000000000000000000000000000000000000000900463ffffffff16806304cdb171146100bf578063092a5cce146101245780631e6d56731461013b5780634fb3d3b1146101a45780635204f7c314610209578063659510711461021357806388e02aa61461028e5780638da5cb5b146102d25780638f32d59b14610329578063b84fb44314610358578063c7f5abdc146103a9578063f9727975146103ed575b600080fd5b3480156100cb57600080fd5b5061010e600480360360208110156100e257600080fd5b81019080803573ffffffffffffffffffffffffffffffffffffffff169060200190929190505050610459565b6040518082815260200191505060405180910390f35b34801561013057600080fd5b506101396104a2565b005b34801561014757600080fd5b5061018a6004803603602081101561015e57600080fd5b81019080803573ffffffffffffffffffffffffffffffffffffffff169060200190929190505050610516565b604051808215151515815260200191505060405180910390f35b3480156101b057600080fd5b506101f3600480360360208110156101c757600080fd5b81019080803573ffffffffffffffffffffffffffffffffffffffff16906020019092919050505061056c565b6040518082815260200191505060405180910390f35b6102116105b5565b005b34801561021f57600080fd5b5061024c6004803603602081101561023657600080fd5b81019080803590602001909291905050506106af565b604051808273ffffffffffffffffffffffffffffffffffffffff1673ffffffffffffffffffffffffffffffffffffffff16815260200191505060405180910390f35b6102d0600480360360208110156102a457600080fd5b81019080803573ffffffffffffffffffffffffffffffffffffffff1690602001909291905050506106ed565b005b3480156102de57600080fd5b506102e7610798565b604051808273ffffffffffffffffffffffffffffffffffffffff1673ffffffffffffffffffffffffffffffffffffffff16815260200191505060405180910390f35b34801561033557600080fd5b5061033e6107bd565b604051808215151515815260200191505060405180910390f35b34801561036457600080fd5b506103a76004803603602081101561037b57600080fd5b81019080803573ffffffffffffffffffffffffffffffffffffffff169060200190929190505050610825565b005b6103eb600480360360208110156103bf57600080fd5b81019080803573ffffffffffffffffffffffffffffffffffffffff16906020019092919050505061094e565b005b3480156103f957600080fd5b50610402610de4565b6040518080602001828103825283818151815260200191508051906020019060200280838360005b8381101561044557808201518184015260208101905061042a565b505050509050019250505060405180910390f35b6000600460008373ffffffffffffffffffffffffffffffffffffffff1673ffffffffffffffffffffffffffffffffffffffff168152602001908152602001600020549050919050565b3373ffffffffffffffffffffffffffffffffffffffff166000809054906101000a900473ffffffffffffffffffffffffffffffffffffffff1673ffffffffffffffffffffffffffffffffffffffff161415156104fd57600080fd5b3373ffffffffffffffffffffffffffffffffffffffff16ff5b6000600360008373ffffffffffffffffffffffffffffffffffffffff1673ffffffffffffffffffffffffffffffffffffffff16815260200190815260200160002060009054906101000a900460ff169050919050565b6000600560008373ffffffffffffffffffffffffffffffffffffffff1673ffffffffffffffffffffffffffffffffffffffff168152602001908152602001600020549050919050565b6000600460003373ffffffffffffffffffffffffffffffffffffffff1673ffffffffffffffffffffffffffffffffffffffff1681526020019081526020016000205414151561060357600080fd5b34600460003373ffffffffffffffffffffffffffffffffffffffff1673ffffffffffffffffffffffffffffffffffffffff1681526020019081526020016000208190555060063390806001815401808255809150509060018203906000526020600020016000909192909190916101000a81548173ffffffffffffffffffffffffffffffffffffffff021916908373ffffffffffffffffffffffffffffffffffffffff16021790555050565b6006818154811015156106be57fe5b906000526020600020016000915054906101000a900473ffffffffffffffffffffffffffffffffffffffff1681565b3373ffffffffffffffffffffffffffffffffffffffff166000809054906101000a900473ffffffffffffffffffffffffffffffffffffffff1673ffffffffffffffffffffffffffffffffffffffff1614151561074857600080fd5b34600460008373ffffffffffffffffffffffffffffffffffffffff1673ffffffffffffffffffffffffffffffffffffffff1681526020019081526020016000206000828254019250508190555050565b6000809054906101000a900473ffffffffffffffffffffffffffffffffffffffff1681565b60008060009054906101000a900473ffffffffffffffffffffffffffffffffffffffff1673ffffffffffffffffffffffffffffffffffffffff163373ffffffffffffffffffffffffffffffffffffffff16141561081d5760019050610822565b600090505b90565b3373ffffffffffffffffffffffffffffffffffffffff166000809054906101000a900473ffffffffffffffffffffffffffffffffffffffff1673ffffffffffffffffffffffffffffffffffffffff1614151561088057600080fd5b3373ffffffffffffffffffffffffffffffffffffffff166108fc600460008473ffffffffffffffffffffffffffffffffffffffff1673ffffffffffffffffffffffffffffffffffffffff168152602001908152602001600020549081150290604051600060405180830381858888f19350505050158015610905573d6000803e3d6000fd5b506000600460008373ffffffffffffffffffffffffffffffffffffffff1673ffffffffffffffffffffffffffffffffffffffff1681526020019081526020016000208190555050565b346706f05b59d3b200001115156109cd576040517f08c379a00000000000000000000000000000000000000000000000000000000081526004018080602001828103825260028152602001807f2d3100000000000000000000000000000000000000000000000000000000000081525060200191505060405180910390fd5b600034111515610a45576040517f08c379a00000000000000000000000000000000000000000000000000000000081526004018080602001828103825260028152602001807f2d3200000000000000000000000000000000000000000000000000000000000081525060200191505060405180910390fd5b600060023402905080600460008473ffffffffffffffffffffffffffffffffffffffff1673ffffffffffffffffffffffffffffffffffffffff1681526020019081526020016000205410151515610b04576040517f08c379a00000000000000000000000000000000000000000000000000000000081526004018080602001828103825260028152602001807f2d3300000000000000000000000000000000000000000000000000000000000081525060200191505060405180910390fd5b60025481138015610b16575060015481125b1515610b8a576040517f08c379a00000000000000000000000000000000000000000000000000000000081526004018080602001828103825260028152602001807f2d3400000000000000000000000000000000000000000000000000000000000081525060200191505060405180910390fd5b6000610b94610e72565b60ff1690506000600282811515610ba757fe5b061415610cec5734600460008573ffffffffffffffffffffffffffffffffffffffff1673ffffffffffffffffffffffffffffffffffffffff168152602001908152602001600020600082825403925050819055503373ffffffffffffffffffffffffffffffffffffffff166108fc839081150290604051600060405180830381858888f19350505050158015610c41573d6000803e3d6000fd5b5081600560003373ffffffffffffffffffffffffffffffffffffffff1673ffffffffffffffffffffffffffffffffffffffff168152602001908152602001600020600082825401925050819055506001600360003373ffffffffffffffffffffffffffffffffffffffff1673ffffffffffffffffffffffffffffffffffffffff16815260200190815260200160002060006101000a81548160ff021916908315150217905550610ddf565b34600460008573ffffffffffffffffffffffffffffffffffffffff1673ffffffffffffffffffffffffffffffffffffffff1681526020019081526020016000206000828254019250508190555034600560003373ffffffffffffffffffffffffffffffffffffffff1673ffffffffffffffffffffffffffffffffffffffff168152602001908152602001600020600082825403925050819055506000600360003373ffffffffffffffffffffffffffffffffffffffff1673ffffffffffffffffffffffffffffffffffffffff16815260200190815260200160002060006101000a81548160ff0219169083151502179055505b505050565b60606006805480602002602001604051908101604052809291908181526020018280548015610e6857602002820191906000526020600020905b8160009054906101000a900473ffffffffffffffffffffffffffffffffffffffff1673ffffffffffffffffffffffffffffffffffffffff1681526020019060010190808311610e1e575b5050505050905090565b60008060fb424460405160200180838152602001828152602001925050506040516020818303038152906040528051906020012060019004811515610eb357fe5b069050809150509056fea165627a7a72305820f24771187af8ee316e82400959ec17b3a62683a9258caad3d57caad4a22fa9380029",
  "source": "pragma solidity ^0.5.0;\n\ncontract CoinFlip {\n\taddress public owner;\n\tint256 private maxInt = 57896044618658097711785492504343953926634992332820282019728792003956564819967;\n\tint256 private minInt = maxInt + 1;\n\tmapping (address => bool) lastFlip;\n\tmapping (address => uint256) contractBalance;\n\tmapping (address => int256) userHistory;\n\taddress[] public listOfBank;\n\n\tconstructor() public payable{\n\t\towner = msg.sender;\n\n\t\t// Contract address\n\t\trequire(msg.value > 0);\n\t\tcontractBalance[msg.sender] = msg.value;\n\t\tlistOfBank.push(msg.sender);\n\t\tlastFlip[msg.sender] = false;\n\t}\n\n\tmodifier onlyOwner{\n\t\trequire(owner == msg.sender);\n\t\t_;\n\t}\n\n\tfunction createBank() public payable{\n\t\trequire(contractBalance[msg.sender] == 0);\n\t\tcontractBalance[msg.sender] = msg.value;\n\t\tlistOfBank.push(msg.sender);\n\t}\n\n\tfunction getListOfBank() view public returns(address[] memory){\n\t\treturn listOfBank;\n\t}\n\n\tfunction getBankBalance(address _bankAddr) view public returns(uint256){\n\t\treturn contractBalance[_bankAddr];\n\t}\n\n\t// Get the balance of the user\n\tfunction getUserHistory(address player) view public returns(int256){\n\t\treturn userHistory[player];\n\t}\n\n\t// Get the result of the player flip\n\tfunction getLastFlip(address player) view public returns(bool){\n\t\treturn lastFlip[player];\n\t}\n\n\t/*\n\t* As the timestamp can be control by the miner we need to set\n\t* a max limit per bet in the flip function.\n\t*/\n\tfunction pseudoRandom() private view returns (uint8) {\n\t\tuint8 result = uint8(uint256(keccak256(abi.encodePacked(block.timestamp, block.difficulty)))%251); \n\t\treturn result;\n\t}\n\n\t/*\tError Cases\n\t*\n\t*\terror -1 Bet can't be more than 0.5\n\t*\terror -2 user bet could't be null\n\t*\terror -3 Contract address don't have enought found to pay the user\n\t*\terror -4 The value is too big regarding to the previous contract rules\n\t*\t\t\t and it will make fail the implicit cast for the player historic\n\t*\n\t*/\n\n\tfunction flip(address _bankAddr) payable public{\n\t\t\n\t\trequire(0.5 ether > msg.value, \"-1\");\n\t\trequire(msg.value > 0, \"-2\");\n\t\t\n\t\tuint256 jackpotValue = msg.value * 2;\n\t\trequire(contractBalance[_bankAddr] >= jackpotValue, \"-3\");\n\n\t\t/*\n\t\t*\n\t\t*\tThe value is too big regarding to the previous contract rules\n\t\t*\tand it will make fail the implicit cast for the player history\n\t\t* \n\t\t*/\n\t\trequire(int256(jackpotValue) > minInt && int256(jackpotValue) < maxInt, \"-4\");\n\n\n\t\t// Run the pseudorandom function\n\t\tuint randomResult = pseudoRandom();\n\n\t\tif(randomResult % 2 == 0){\n\t\t\tcontractBalance[_bankAddr] -= msg.value;\n\t\t\tmsg.sender.transfer(jackpotValue);\n\t\t\tuserHistory[msg.sender] += int256(jackpotValue);\n\t\t\tlastFlip[msg.sender] = true;\n\t\t} else {\n\t\t\tcontractBalance[_bankAddr] += msg.value;\n\t\t\tuserHistory[msg.sender] -= int256(msg.value);\n\t\t\tlastFlip[msg.sender] = false;\n\t\t}\n\t}\n\n\tfunction sendMoneyToTheBank(address _bankAddr) payable public onlyOwner{\n\t\tcontractBalance[_bankAddr] += msg.value;\n\t}\n\n\tfunction withdrawBankAccount(address _bankAddr) public onlyOwner{\n\t\tmsg.sender.transfer(contractBalance[_bankAddr]);\n\t\tcontractBalance[_bankAddr] = 0;\n\t}\n\n\tfunction destroyContract() public onlyOwner{\n\t\tselfdestruct(msg.sender);\n\t}\n\n\tfunction isOwner() public view returns(bool status){\n\t\tif(msg.sender == owner)\n\t\t\treturn true;\n\t\telse\n\t\t\treturn false;\n\t}\n}",
  "sourcePath": "/home/gabba/git/docker-dev-ethereum/flip-coin/contracts/CoinFlip.sol",
  "compiler": {
    "name": "solc",
    "version": "0.5.0+commit.1d4f565a.Emscripten.clang"
  },
  "schemaVersion": "3.0.5",
  "updatedAt": "2019-07-04T23:53:40.334Z",
  "devdoc": {
    "methods": {}
  },
  "userdoc": {
    "methods": {}
  }
}