{
  "contractName": "CoinFlip",
  "abi": [
    {
      "inputs": [],
      "payable": true,
      "stateMutability": "payable",
      "type": "constructor",
      "signature": "constructor"
    },
    {
      "anonymous": false,
      "inputs": [
        {
          "indexed": false,
          "name": "result",
          "type": "string"
        }
      ],
      "name": "resultOfFlip",
      "type": "event",
      "signature": "0x2af52f5cce337034845e0f43ed096efd5d9e5af7c9988e3012131dab5a18423e"
    },
    {
      "anonymous": false,
      "inputs": [
        {
          "indexed": false,
          "name": "timestamp",
          "type": "uint256"
        },
        {
          "indexed": false,
          "name": "difficulty",
          "type": "uint256"
        },
        {
          "indexed": false,
          "name": "result",
          "type": "uint256"
        }
      ],
      "name": "calculOfRandom",
      "type": "event",
      "signature": "0xd1402e75d3f389af713a7551bb5e3595807d30bb64def5adaf0bc9184e0f32ee"
    },
    {
      "constant": true,
      "inputs": [],
      "name": "getContract",
      "outputs": [
        {
          "name": "",
          "type": "uint256"
        }
      ],
      "payable": false,
      "stateMutability": "view",
      "type": "function",
      "signature": "0x958f85bd"
    },
    {
      "constant": true,
      "inputs": [],
      "name": "getBankBalance",
      "outputs": [
        {
          "name": "",
          "type": "uint256"
        }
      ],
      "payable": false,
      "stateMutability": "view",
      "type": "function",
      "signature": "0x7b83b50b"
    },
    {
      "constant": true,
      "inputs": [
        {
          "name": "player",
          "type": "address"
        }
      ],
      "name": "getUserBalance",
      "outputs": [
        {
          "name": "",
          "type": "uint256"
        }
      ],
      "payable": false,
      "stateMutability": "view",
      "type": "function",
      "signature": "0x47734892"
    },
    {
      "constant": true,
      "inputs": [
        {
          "name": "player",
          "type": "address"
        }
      ],
      "name": "getLastFlip",
      "outputs": [
        {
          "name": "",
          "type": "bool"
        }
      ],
      "payable": false,
      "stateMutability": "view",
      "type": "function",
      "signature": "0x1e6d5673"
    },
    {
      "constant": false,
      "inputs": [],
      "name": "flip",
      "outputs": [],
      "payable": true,
      "stateMutability": "payable",
      "type": "function",
      "signature": "0xcde4efa9"
    },
    {
      "constant": false,
      "inputs": [
        {
          "name": "player",
          "type": "address"
        }
      ],
      "name": "playerWithdraw",
      "outputs": [],
      "payable": false,
      "stateMutability": "nonpayable",
      "type": "function",
      "signature": "0x8325229a"
    },
    {
      "constant": false,
      "inputs": [],
      "name": "sendMoneyToTheBank",
      "outputs": [],
      "payable": true,
      "stateMutability": "payable",
      "type": "function",
      "signature": "0xbb190640"
    },
    {
      "constant": false,
      "inputs": [],
      "name": "sendMoneyToThePlayer",
      "outputs": [],
      "payable": true,
      "stateMutability": "payable",
      "type": "function",
      "signature": "0x0e971b64"
    }
  ],
  "bytecode": "0x6080604052336000806101000a81548173ffffffffffffffffffffffffffffffffffffffff021916908373ffffffffffffffffffffffffffffffffffffffff1602179055506000600260003373ffffffffffffffffffffffffffffffffffffffff1673ffffffffffffffffffffffffffffffffffffffff1681526020019081526020016000208190555034600260003073ffffffffffffffffffffffffffffffffffffffff1673ffffffffffffffffffffffffffffffffffffffff168152602001908152602001600020819055506000600160003373ffffffffffffffffffffffffffffffffffffffff1673ffffffffffffffffffffffffffffffffffffffff16815260200190815260200160002060006101000a81548160ff021916908315150217905550610887806101346000396000f3fe60806040526004361061008e576000357c0100000000000000000000000000000000000000000000000000000000900463ffffffff1680630e971b64146100935780631e6d56731461009d57806347734892146101065780637b83b50b1461016b5780638325229a14610196578063958f85bd146101e7578063bb19064014610212578063cde4efa91461021c575b600080fd5b61009b610226565b005b3480156100a957600080fd5b506100ec600480360360208110156100c057600080fd5b81019080803573ffffffffffffffffffffffffffffffffffffffff169060200190929190505050610275565b604051808215151515815260200191505060405180910390f35b34801561011257600080fd5b506101556004803603602081101561012957600080fd5b81019080803573ffffffffffffffffffffffffffffffffffffffff1690602001909291905050506102cb565b6040518082815260200191505060405180910390f35b34801561017757600080fd5b50610180610314565b6040518082815260200191505060405180910390f35b3480156101a257600080fd5b506101e5600480360360208110156101b957600080fd5b81019080803573ffffffffffffffffffffffffffffffffffffffff16906020019092919050505061035b565b005b3480156101f357600080fd5b506101fc61041e565b6040518082815260200191505060405180910390f35b61021a61043d565b005b61022461048c565b005b34600260003373ffffffffffffffffffffffffffffffffffffffff1673ffffffffffffffffffffffffffffffffffffffff16815260200190815260200160002060008282540192505081905550565b6000600160008373ffffffffffffffffffffffffffffffffffffffff1673ffffffffffffffffffffffffffffffffffffffff16815260200190815260200160002060009054906101000a900460ff169050919050565b6000600260008373ffffffffffffffffffffffffffffffffffffffff1673ffffffffffffffffffffffffffffffffffffffff168152602001908152602001600020549050919050565b6000600260003073ffffffffffffffffffffffffffffffffffffffff1673ffffffffffffffffffffffffffffffffffffffff16815260200190815260200160002054905090565b8073ffffffffffffffffffffffffffffffffffffffff163373ffffffffffffffffffffffffffffffffffffffff1614151561039557600080fd5b3373ffffffffffffffffffffffffffffffffffffffff166108fc600260008473ffffffffffffffffffffffffffffffffffffffff1673ffffffffffffffffffffffffffffffffffffffff168152602001908152602001600020549081150290604051600060405180830381858888f1935050505015801561041a573d6000803e3d6000fd5b5050565b60003073ffffffffffffffffffffffffffffffffffffffff1631905090565b34600260003073ffffffffffffffffffffffffffffffffffffffff1673ffffffffffffffffffffffffffffffffffffffff16815260200190815260200160002060008282540192505081905550565b34600260003373ffffffffffffffffffffffffffffffffffffffff1673ffffffffffffffffffffffffffffffffffffffff16815260200190815260200160002054101515156104da57600080fd5b60006104e46107c6565b60ff169050600034905060006002838115156104fc57fe5b0614156106675760028102600260003373ffffffffffffffffffffffffffffffffffffffff1673ffffffffffffffffffffffffffffffffffffffff1681526020019081526020016000206000828254019250508190555060028102600260003073ffffffffffffffffffffffffffffffffffffffff1673ffffffffffffffffffffffffffffffffffffffff1681526020019081526020016000206000828254039250508190555060018060003373ffffffffffffffffffffffffffffffffffffffff1673ffffffffffffffffffffffffffffffffffffffff16815260200190815260200160002060006101000a81548160ff0219169083151502179055507f2af52f5cce337034845e0f43ed096efd5d9e5af7c9988e3012131dab5a18423e6040518080602001828103825260058152602001807f6761676e6500000000000000000000000000000000000000000000000000000081525060200191505060405180910390a16107c2565b34600260003373ffffffffffffffffffffffffffffffffffffffff1673ffffffffffffffffffffffffffffffffffffffff1681526020019081526020016000206000828254039250508190555034600260003073ffffffffffffffffffffffffffffffffffffffff1673ffffffffffffffffffffffffffffffffffffffff168152602001908152602001600020600082825401925050819055506000600160003373ffffffffffffffffffffffffffffffffffffffff1673ffffffffffffffffffffffffffffffffffffffff16815260200190815260200160002060006101000a81548160ff0219169083151502179055507f2af52f5cce337034845e0f43ed096efd5d9e5af7c9988e3012131dab5a18423e6040518080602001828103825260048152602001807f706572640000000000000000000000000000000000000000000000000000000081525060200191505060405180910390a15b5050565b60008060fb42446040516020018083815260200182815260200192505050604051602081830303815290604052805190602001206001900481151561080757fe5b0690507fd1402e75d3f389af713a7551bb5e3595807d30bb64def5adaf0bc9184e0f32ee424483604051808481526020018381526020018260ff168152602001935050505060405180910390a1809150509056fea165627a7a723058203b0f55406ca19f649ca680035d7e29e0c62092461b95687489be5857425cf0910029",
  "source": "pragma solidity ^0.5.0;\n\ncontract CoinFlip {\n    address owner;\n    mapping (address => bool) lastFlip;\n    mapping (address => uint256) userBalance;\n\n    event resultOfFlip(string result);\n    event calculOfRandom(uint timestamp, uint difficulty, uint result);\n\n    constructor() public payable{\n        owner = msg.sender;\n\n        // User address\n\t    userBalance[msg.sender] = 0;\n\n\t    // Contract address\n\t    userBalance[address(this)] = msg.value;\n    \tlastFlip[msg.sender] = false;\n    }\n\n    modifier onlyOwner{\n    \trequire(owner == msg.sender);\n    \t_;\n    }\n\n    function getContract() view public returns(uint){\n        return address(this).balance;\n    }\n\n    function getBankBalance() view public returns(uint){\n        return userBalance[address(this)];\n    }\n\n    function getUserBalance(address player) view public returns(uint){\n        return userBalance[player];\n    }\n\n    function getLastFlip(address player) view public returns(bool){\n        return lastFlip[player];\n    }\n\n    function random() private returns (uint8) {\n       uint8 result = uint8(uint256(keccak256(abi.encodePacked(block.timestamp, block.difficulty)))%251); \n\t   emit calculOfRandom(block.timestamp, block.difficulty, result);\n       return result;\n   }\n\n    //   NEED TO SECURE THIS\n    function flip() payable public{\n    \trequire(userBalance[msg.sender] >= msg.value);\n        uint time = random();\n        uint bet = msg.value;\n\n        if(time % 2 == 0){\n        \tuserBalance[msg.sender] += bet*2;\n            userBalance[address(this)] -= bet*2;\n            lastFlip[msg.sender] = true;\n    \t    emit resultOfFlip(\"gagne\");\n        } else {\n        \tuserBalance[msg.sender] -= msg.value;\n            userBalance[address(this)] += msg.value;\n            lastFlip[msg.sender] = false;\n\t        emit resultOfFlip(\"perd\");\n        }\n    }\n\n    function playerWithdraw(address player) public{\n    \trequire(msg.sender == player);\n        msg.sender.transfer(userBalance[player]);\n    }\n\n    function sendMoneyToTheBank() payable public{\n    \tuserBalance[address(this)] += msg.value;\n    }\n\n    function sendMoneyToThePlayer() payable public{\n    \tuserBalance[msg.sender] += msg.value;\n    }\n}",
  "sourcePath": "/home/gabba/git/docker-dev-ethereum/flip-coin/contracts/CoinFlip.sol",
  "compiler": {
    "name": "solc",
    "version": "0.5.0+commit.1d4f565a.Emscripten.clang"
  },
  "schemaVersion": "3.0.5",
  "updatedAt": "2019-04-07T07:07:37.179Z",
  "devdoc": {
    "methods": {}
  },
  "userdoc": {
    "methods": {}
  }
}