{
  "contractName": "RobTheBank",
  "abi": [
    {
      "constant": true,
      "inputs": [
        {
          "name": "",
          "type": "uint256"
        }
      ],
      "name": "listOfBank",
      "outputs": [
        {
          "name": "",
          "type": "address"
        }
      ],
      "payable": false,
      "stateMutability": "view",
      "type": "function",
      "signature": "0x65951071"
    },
    {
      "constant": true,
      "inputs": [],
      "name": "owner",
      "outputs": [
        {
          "name": "",
          "type": "address"
        }
      ],
      "payable": false,
      "stateMutability": "view",
      "type": "function",
      "signature": "0x8da5cb5b"
    },
    {
      "inputs": [],
      "payable": true,
      "stateMutability": "payable",
      "type": "constructor",
      "signature": "constructor"
    },
    {
      "anonymous": false,
      "inputs": [
        {
          "indexed": false,
          "name": "_value",
          "type": "bool"
        }
      ],
      "name": "ReturnValue",
      "type": "event",
      "signature": "0x0f757e2a96c8df9c79eb2552edd982d05317b3d7ae7a591b3a02572a9ebf64ee"
    },
    {
      "anonymous": false,
      "inputs": [
        {
          "indexed": false,
          "name": "name",
          "type": "string"
        },
        {
          "indexed": false,
          "name": "addr",
          "type": "address"
        },
        {
          "indexed": false,
          "name": "balance",
          "type": "uint256"
        }
      ],
      "name": "LogListOfBank",
      "type": "event",
      "signature": "0xd7a1b9a787d4511e18da43439e6d3ff4fccd04e85bd75e977c960492575462cb"
    },
    {
      "constant": false,
      "inputs": [
        {
          "name": "_name",
          "type": "string"
        }
      ],
      "name": "createBank",
      "outputs": [],
      "payable": true,
      "stateMutability": "payable",
      "type": "function",
      "signature": "0x70cabda7"
    },
    {
      "constant": true,
      "inputs": [],
      "name": "getBankLength",
      "outputs": [
        {
          "name": "",
          "type": "uint256"
        }
      ],
      "payable": false,
      "stateMutability": "view",
      "type": "function",
      "signature": "0xa3a6635a"
    },
    {
      "constant": false,
      "inputs": [],
      "name": "getListOfBank",
      "outputs": [
        {
          "name": "",
          "type": "address[]"
        }
      ],
      "payable": true,
      "stateMutability": "payable",
      "type": "function",
      "signature": "0xf9727975"
    },
    {
      "constant": false,
      "inputs": [],
      "name": "getListOfBankObj",
      "outputs": [],
      "payable": true,
      "stateMutability": "payable",
      "type": "function",
      "signature": "0x88e1f9bb"
    },
    {
      "constant": true,
      "inputs": [
        {
          "name": "_bankAddr",
          "type": "address"
        }
      ],
      "name": "getBankBalance",
      "outputs": [
        {
          "name": "",
          "type": "uint256"
        }
      ],
      "payable": false,
      "stateMutability": "view",
      "type": "function",
      "signature": "0x04cdb171"
    },
    {
      "constant": true,
      "inputs": [
        {
          "name": "_bankAddr",
          "type": "address"
        }
      ],
      "name": "getBankName",
      "outputs": [
        {
          "name": "",
          "type": "string"
        }
      ],
      "payable": false,
      "stateMutability": "view",
      "type": "function",
      "signature": "0x01da7b31"
    },
    {
      "constant": true,
      "inputs": [
        {
          "name": "_bankAddr",
          "type": "address"
        }
      ],
      "name": "getBankInfos",
      "outputs": [
        {
          "name": "",
          "type": "string"
        },
        {
          "name": "",
          "type": "uint256"
        },
        {
          "name": "",
          "type": "bool"
        }
      ],
      "payable": false,
      "stateMutability": "view",
      "type": "function",
      "signature": "0xbfef5bd3"
    },
    {
      "constant": true,
      "inputs": [
        {
          "name": "player",
          "type": "address"
        }
      ],
      "name": "getUserHistory",
      "outputs": [
        {
          "name": "",
          "type": "int256"
        }
      ],
      "payable": false,
      "stateMutability": "view",
      "type": "function",
      "signature": "0x4fb3d3b1"
    },
    {
      "constant": false,
      "inputs": [
        {
          "name": "_bankAddr",
          "type": "address"
        }
      ],
      "name": "flip",
      "outputs": [
        {
          "name": "",
          "type": "bool"
        }
      ],
      "payable": true,
      "stateMutability": "payable",
      "type": "function",
      "signature": "0xc7f5abdc"
    },
    {
      "constant": false,
      "inputs": [],
      "name": "sendMoneyToTheBank",
      "outputs": [],
      "payable": true,
      "stateMutability": "payable",
      "type": "function",
      "signature": "0xbb190640"
    },
    {
      "constant": true,
      "inputs": [
        {
          "name": "_myCall",
          "type": "address"
        }
      ],
      "name": "isBankOwner",
      "outputs": [
        {
          "name": "",
          "type": "bool"
        }
      ],
      "payable": false,
      "stateMutability": "view",
      "type": "function",
      "signature": "0xde8a40d5"
    },
    {
      "constant": false,
      "inputs": [],
      "name": "withdrawBankAccount",
      "outputs": [],
      "payable": true,
      "stateMutability": "payable",
      "type": "function",
      "signature": "0x23c9bfea"
    },
    {
      "constant": false,
      "inputs": [],
      "name": "destroyContract",
      "outputs": [],
      "payable": false,
      "stateMutability": "nonpayable",
      "type": "function",
      "signature": "0x092a5cce"
    }
  ],
  "bytecode": "0x608060405233600260006101000a81548173ffffffffffffffffffffffffffffffffffffffff021916908373ffffffffffffffffffffffffffffffffffffffff1602179055506000341115156200005557600080fd5b34600160003373ffffffffffffffffffffffffffffffffffffffff1673ffffffffffffffffffffffffffffffffffffffff168152602001908152602001600020600101819055506040805190810160405280600381526020017f4645440000000000000000000000000000000000000000000000000000000000815250600160003373ffffffffffffffffffffffffffffffffffffffff1673ffffffffffffffffffffffffffffffffffffffff16815260200190815260200160002060000190805190602001906200012992919062000294565b5060018060003373ffffffffffffffffffffffffffffffffffffffff1673ffffffffffffffffffffffffffffffffffffffff16815260200190815260200160002060020160006101000a81548160ff02191690831515021790555060033390806001815401808255809150509060018203906000526020600020016000909192909190916101000a81548173ffffffffffffffffffffffffffffffffffffffff021916908373ffffffffffffffffffffffffffffffffffffffff160217905550507fd7a1b9a787d4511e18da43439e6d3ff4fccd04e85bd75e977c960492575462cb333460405180806020018473ffffffffffffffffffffffffffffffffffffffff1673ffffffffffffffffffffffffffffffffffffffff168152602001838152602001828103825260038152602001807f4645440000000000000000000000000000000000000000000000000000000000815250602001935050505060405180910390a162000343565b828054600181600116156101000203166002900490600052602060002090601f016020900481019282601f10620002d757805160ff191683800117855562000308565b8280016001018555821562000308579182015b8281111562000307578251825591602001919060010190620002ea565b5b5090506200031791906200031b565b5090565b6200034091905b808211156200033c57600081600090555060010162000322565b5090565b90565b611ed880620003536000396000f3fe6080604052600436106100db576000357c0100000000000000000000000000000000000000000000000000000000900463ffffffff16806301da7b31146100e057806304cdb171146101aa578063092a5cce1461020f57806323c9bfea146102265780634fb3d3b114610230578063659510711461029557806370cabda71461031057806388e1f9bb146103cb5780638da5cb5b146103d5578063a3a6635a1461042c578063bb19064014610457578063bfef5bd314610461578063c7f5abdc1461053d578063de8a40d514610599578063f972797514610602575b600080fd5b3480156100ec57600080fd5b5061012f6004803603602081101561010357600080fd5b81019080803573ffffffffffffffffffffffffffffffffffffffff169060200190929190505050610661565b6040518080602001828103825283818151815260200191508051906020019080838360005b8381101561016f578082015181840152602081019050610154565b50505050905090810190601f16801561019c5780820380516001836020036101000a031916815260200191505b509250505060405180910390f35b3480156101b657600080fd5b506101f9600480360360208110156101cd57600080fd5b81019080803573ffffffffffffffffffffffffffffffffffffffff169060200190929190505050610745565b6040518082815260200191505060405180910390f35b34801561021b57600080fd5b50610224610791565b005b61022e610806565b005b34801561023c57600080fd5b5061027f6004803603602081101561025357600080fd5b81019080803573ffffffffffffffffffffffffffffffffffffffff1690602001909291905050506109f6565b6040518082815260200191505060405180910390f35b3480156102a157600080fd5b506102ce600480360360208110156102b857600080fd5b8101908080359060200190929190505050610a3e565b604051808273ffffffffffffffffffffffffffffffffffffffff1673ffffffffffffffffffffffffffffffffffffffff16815260200191505060405180910390f35b6103c96004803603602081101561032657600080fd5b810190808035906020019064010000000081111561034357600080fd5b82018360208201111561035557600080fd5b8035906020019184600183028401116401000000008311171561037757600080fd5b91908080601f016020809104026020016040519081016040528093929190818152602001838380828437600081840152601f19601f820116905080830192505050505050509192919290505050610a7c565b005b6103d3610d9f565b005b3480156103e157600080fd5b506103ea610f55565b604051808273ffffffffffffffffffffffffffffffffffffffff1673ffffffffffffffffffffffffffffffffffffffff16815260200191505060405180910390f35b34801561043857600080fd5b50610441610f7b565b6040518082815260200191505060405180910390f35b61045f610f88565b005b34801561046d57600080fd5b506104b06004803603602081101561048457600080fd5b81019080803573ffffffffffffffffffffffffffffffffffffffff1690602001909291905050506110f0565b604051808060200184815260200183151515158152602001828103825285818151815260200191508051906020019080838360005b838110156105005780820151818401526020810190506104e5565b50505050905090810190601f16801561052d5780820380516001836020036101000a031916815260200191505b5094505050505060405180910390f35b61057f6004803603602081101561055357600080fd5b81019080803573ffffffffffffffffffffffffffffffffffffffff169060200190929190505050611231565b604051808215151515815260200191505060405180910390f35b3480156105a557600080fd5b506105e8600480360360208110156105bc57600080fd5b81019080803573ffffffffffffffffffffffffffffffffffffffff169060200190929190505050611774565b604051808215151515815260200191505060405180910390f35b61060a6117e5565b6040518080602001828103825283818151815260200191508051906020019060200280838360005b8381101561064d578082015181840152602081019050610632565b505050509050019250505060405180910390f35b6060600160008373ffffffffffffffffffffffffffffffffffffffff1673ffffffffffffffffffffffffffffffffffffffff1681526020019081526020016000206000018054600181600116156101000203166002900480601f0160208091040260200160405190810160405280929190818152602001828054600181600116156101000203166002900480156107395780601f1061070e57610100808354040283529160200191610739565b820191906000526020600020905b81548152906001019060200180831161071c57829003601f168201915b50505050509050919050565b6000600160008373ffffffffffffffffffffffffffffffffffffffff1673ffffffffffffffffffffffffffffffffffffffff168152602001908152602001600020600101549050919050565b3373ffffffffffffffffffffffffffffffffffffffff16600260009054906101000a900473ffffffffffffffffffffffffffffffffffffffff1673ffffffffffffffffffffffffffffffffffffffff161415156107ed57600080fd5b3373ffffffffffffffffffffffffffffffffffffffff16ff5b60011515600160003373ffffffffffffffffffffffffffffffffffffffff1673ffffffffffffffffffffffffffffffffffffffff16815260200190815260200160002060020160009054906101000a900460ff1615151415156108d1576040517f08c379a00000000000000000000000000000000000000000000000000000000081526004018080602001828103825260128152602001807f42616e6b20646f65736e2774206578697374000000000000000000000000000081525060200191505060405180910390fd5b6000600160003373ffffffffffffffffffffffffffffffffffffffff1673ffffffffffffffffffffffffffffffffffffffff168152602001908152602001600020600101541415151561092357600080fd5b3373ffffffffffffffffffffffffffffffffffffffff166108fc600160003373ffffffffffffffffffffffffffffffffffffffff1673ffffffffffffffffffffffffffffffffffffffff168152602001908152602001600020600101549081150290604051600060405180830381858888f193505050501580156109ab573d6000803e3d6000fd5b506000600160003373ffffffffffffffffffffffffffffffffffffffff1673ffffffffffffffffffffffffffffffffffffffff16815260200190815260200160002060010181905550565b60008060008373ffffffffffffffffffffffffffffffffffffffff1673ffffffffffffffffffffffffffffffffffffffff168152602001908152602001600020549050919050565b600381815481101515610a4d57fe5b906000526020600020016000915054906101000a900473ffffffffffffffffffffffffffffffffffffffff1681565b60001515600160003373ffffffffffffffffffffffffffffffffffffffff1673ffffffffffffffffffffffffffffffffffffffff16815260200190815260200160002060020160009054906101000a900460ff161515141515610b47576040517f08c379a00000000000000000000000000000000000000000000000000000000081526004018080602001828103825260198152602001807f596f752063616e206f6e6c79206f776e206f6e652062616e6b0000000000000081525060200191505060405180910390fd5b60158151101515610b5757600080fd5b600034111515610b6657600080fd5b34600160003373ffffffffffffffffffffffffffffffffffffffff1673ffffffffffffffffffffffffffffffffffffffff1681526020019081526020016000206001018190555060018060003373ffffffffffffffffffffffffffffffffffffffff1673ffffffffffffffffffffffffffffffffffffffff16815260200190815260200160002060020160006101000a81548160ff02191690831515021790555080600160003373ffffffffffffffffffffffffffffffffffffffff1673ffffffffffffffffffffffffffffffffffffffff1681526020019081526020016000206000019080519060200190610c5d929190611de3565b5060033390806001815401808255809150509060018203906000526020600020016000909192909190916101000a81548173ffffffffffffffffffffffffffffffffffffffff021916908373ffffffffffffffffffffffffffffffffffffffff160217905550507fd7a1b9a787d4511e18da43439e6d3ff4fccd04e85bd75e977c960492575462cb81333460405180806020018473ffffffffffffffffffffffffffffffffffffffff1673ffffffffffffffffffffffffffffffffffffffff168152602001838152602001828103825285818151815260200191508051906020019080838360005b83811015610d60578082015181840152602081019050610d45565b50505050905090810190601f168015610d8d5780820380516001836020036101000a031916815260200191505b5094505050505060405180910390a150565b60008090505b600380549050811015610f52577fd7a1b9a787d4511e18da43439e6d3ff4fccd04e85bd75e977c960492575462cb610e15600383815481101515610de557fe5b9060005260206000200160009054906101000a900473ffffffffffffffffffffffffffffffffffffffff16610661565b600383815481101515610e2457fe5b9060005260206000200160009054906101000a900473ffffffffffffffffffffffffffffffffffffffff16610e91600385815481101515610e6157fe5b9060005260206000200160009054906101000a900473ffffffffffffffffffffffffffffffffffffffff16610745565b60405180806020018473ffffffffffffffffffffffffffffffffffffffff1673ffffffffffffffffffffffffffffffffffffffff168152602001838152602001828103825285818151815260200191508051906020019080838360005b83811015610f09578082015181840152602081019050610eee565b50505050905090810190601f168015610f365780820380516001836020036101000a031916815260200191505b5094505050505060405180910390a18080600101915050610da5565b50565b600260009054906101000a900473ffffffffffffffffffffffffffffffffffffffff1681565b6000600380549050905090565b60011515600160003373ffffffffffffffffffffffffffffffffffffffff1673ffffffffffffffffffffffffffffffffffffffff16815260200190815260200160002060020160009054906101000a900460ff161515141515611053576040517f08c379a00000000000000000000000000000000000000000000000000000000081526004018080602001828103825260198152602001807f596f7520646f6e2774206861766520612062616e6b207965740000000000000081525060200191505060405180910390fd5b6110a834600160003373ffffffffffffffffffffffffffffffffffffffff1673ffffffffffffffffffffffffffffffffffffffff1681526020019081526020016000206001015461187390919063ffffffff16565b600160003373ffffffffffffffffffffffffffffffffffffffff1673ffffffffffffffffffffffffffffffffffffffff16815260200190815260200160002060010181905550565b60606000806110fd611e63565b600160008673ffffffffffffffffffffffffffffffffffffffff1673ffffffffffffffffffffffffffffffffffffffff16815260200190815260200160002060606040519081016040529081600082018054600181600116156101000203166002900480601f0160208091040260200160405190810160405280929190818152602001828054600181600116156101000203166002900480156111e15780601f106111b6576101008083540402835291602001916111e1565b820191906000526020600020905b8154815290600101906020018083116111c457829003601f168201915b50505050508152602001600182015481526020016002820160009054906101000a900460ff1615151515815250509050806000015181602001518260400151829250935093509350509193909250565b600034678ac7230489e800001115156112b2576040517f08c379a000000000000000000000000000000000000000000000000000000000815260040180806020018281038252601e8152602001807f6265742073686f756c64206265206c657373207468616e20313020657468000081525060200191505060405180910390fd5b60003411151561132a576040517f08c379a000000000000000000000000000000000000000000000000000000000815260040180806020018281038252600e8152602001807f6265742063616e2774206265203000000000000000000000000000000000000081525060200191505060405180910390fd5b34600160008473ffffffffffffffffffffffffffffffffffffffff1673ffffffffffffffffffffffffffffffffffffffff168152602001908152602001600020600101541015151561140a576040517f08c379a000000000000000000000000000000000000000000000000000000000815260040180806020018281038252602f8152602001807f62616e6b2062616c616e63652073686f756c642062652067726561746572207481526020017f68616e20746865206a61636b706f74000000000000000000000000000000000081525060400191505060405180910390fd5b60006114146118fd565b9050600060028260ff1681151561142757fe5b0660ff1614156115ff5761148634600160008673ffffffffffffffffffffffffffffffffffffffff1673ffffffffffffffffffffffffffffffffffffffff1681526020019081526020016000206001015461195590919063ffffffff16565b600160008573ffffffffffffffffffffffffffffffffffffffff1673ffffffffffffffffffffffffffffffffffffffff168152602001908152602001600020600101819055503373ffffffffffffffffffffffffffffffffffffffff166108fc6114fa60023461199f90919063ffffffff16565b9081150290604051600060405180830381858888f19350505050158015611525573d6000803e3d6000fd5b50611577346000803373ffffffffffffffffffffffffffffffffffffffff1673ffffffffffffffffffffffffffffffffffffffff16815260200190815260200160002054611a6c90919063ffffffff16565b6000803373ffffffffffffffffffffffffffffffffffffffff1673ffffffffffffffffffffffffffffffffffffffff168152602001908152602001600020819055507f0f757e2a96c8df9c79eb2552edd982d05317b3d7ae7a591b3a02572a9ebf64ee6001604051808215151515815260200191505060405180910390a1600191505061176f565b61165434600160008673ffffffffffffffffffffffffffffffffffffffff1673ffffffffffffffffffffffffffffffffffffffff1681526020019081526020016000206001015461187390919063ffffffff16565b600160008573ffffffffffffffffffffffffffffffffffffffff1673ffffffffffffffffffffffffffffffffffffffff168152602001908152602001600020600101819055506116eb346000803373ffffffffffffffffffffffffffffffffffffffff1673ffffffffffffffffffffffffffffffffffffffff16815260200190815260200160002054611b3f90919063ffffffff16565b6000803373ffffffffffffffffffffffffffffffffffffffff1673ffffffffffffffffffffffffffffffffffffffff168152602001908152602001600020819055507f0f757e2a96c8df9c79eb2552edd982d05317b3d7ae7a591b3a02572a9ebf64ee6000604051808215151515815260200191505060405180910390a160009150505b919050565b600060011515600160008473ffffffffffffffffffffffffffffffffffffffff1673ffffffffffffffffffffffffffffffffffffffff16815260200190815260200160002060020160009054906101000a900460ff16151514156117db57600190506117e0565b600090505b919050565b6060600380548060200260200160405190810160405280929190818152602001828054801561186957602002820191906000526020600020905b8160009054906101000a900473ffffffffffffffffffffffffffffffffffffffff1673ffffffffffffffffffffffffffffffffffffffff168152602001906001019080831161181f575b5050505050905090565b60008082840190508381101515156118f3576040517f08c379a000000000000000000000000000000000000000000000000000000000815260040180806020018281038252601b8152602001807f536166654d6174683a206164646974696f6e206f766572666c6f77000000000081525060200191505060405180910390fd5b8091505092915050565b6000804244604051602001808381526020018281526020019250505060405160208183030381529060405280519060200120600190049050600061194b60fb83611c1290919063ffffffff16565b9050809250505090565b600061199783836040805190810160405280601e81526020017f536166654d6174683a207375627472616374696f6e206f766572666c6f770000815250611c5c565b905092915050565b6000808314156119b25760009050611a66565b600082840290508284828115156119c557fe5b04141515611a61576040517f08c379a00000000000000000000000000000000000000000000000000000000081526004018080602001828103825260218152602001807f536166654d6174683a206d756c7469706c69636174696f6e206f766572666c6f81526020017f770000000000000000000000000000000000000000000000000000000000000081525060400191505060405180910390fd5b809150505b92915050565b600080828401905060008312158015611a855750838112155b80611a9b5750600083128015611a9a57508381125b5b1515611b35576040517f08c379a00000000000000000000000000000000000000000000000000000000081526004018080602001828103825260218152602001807f5369676e6564536166654d6174683a206164646974696f6e206f766572666c6f81526020017f770000000000000000000000000000000000000000000000000000000000000081525060400191505060405180910390fd5b8091505092915050565b600080828403905060008312158015611b585750838113155b80611b6e5750600083128015611b6d57508381135b5b1515611c08576040517f08c379a00000000000000000000000000000000000000000000000000000000081526004018080602001828103825260248152602001807f5369676e6564536166654d6174683a207375627472616374696f6e206f76657281526020017f666c6f770000000000000000000000000000000000000000000000000000000081525060400191505060405180910390fd5b8091505092915050565b6000611c5483836040805190810160405280601881526020017f536166654d6174683a206d6f64756c6f206279207a65726f0000000000000000815250611d1e565b905092915050565b60008383111582901515611d0b576040517f08c379a00000000000000000000000000000000000000000000000000000000081526004018080602001828103825283818151815260200191508051906020019080838360005b83811015611cd0578082015181840152602081019050611cb5565b50505050905090810190601f168015611cfd5780820380516001836020036101000a031916815260200191505b509250505060405180910390fd5b5060008385039050809150509392505050565b60008083141582901515611dcd576040517f08c379a00000000000000000000000000000000000000000000000000000000081526004018080602001828103825283818151815260200191508051906020019080838360005b83811015611d92578082015181840152602081019050611d77565b50505050905090810190601f168015611dbf5780820380516001836020036101000a031916815260200191505b509250505060405180910390fd5b508284811515611dd957fe5b0690509392505050565b828054600181600116156101000203166002900490600052602060002090601f016020900481019282601f10611e2457805160ff1916838001178555611e52565b82800160010185558215611e52579182015b82811115611e51578251825591602001919060010190611e36565b5b509050611e5f9190611e87565b5090565b60606040519081016040528060608152602001600081526020016000151581525090565b611ea991905b80821115611ea5576000816000905550600101611e8d565b5090565b9056fea165627a7a72305820d8a31bdb39cbfc0d1dcd9a8920132583a3f5cf4a8ba3c7b89aa78fcaa35926910029",
  "source": "pragma solidity ^0.5.0;\nimport '../client/node_modules/@openzeppelin/contracts/math/SafeMath.sol';\nimport '../client/node_modules/@openzeppelin/contracts/drafts/SignedSafeMath.sol';\n\n// Import SafeMath library from github (this import only works on Remix).\n//import \"https://github.com/OpenZeppelin/openzeppelin-solidity/contracts/math/SafeMath.sol\";\n\ncontract RobTheBank{\n\n\tusing SafeMath for uint256;\n\tusing SignedSafeMath for int256;\n\n    struct Bank {\n        string name;\n        uint256 balance;\n        bool isCreated;\n    }\n\n\tmapping (address => int256) userHistory;\n\tmapping(address => Bank) Banks;\n\taddress public owner;\n\taddress[] public listOfBank;\n\n\tevent ReturnValue(bool _value);\n    event LogListOfBank(string name, address addr, uint256 balance);\n\n\tconstructor() public payable{\n\t\towner = msg.sender;\n\n\t\t// Contract address\n\t\trequire(msg.value > 0);\n\t\tBanks[msg.sender].balance = msg.value;\n\t\tBanks[msg.sender].name = \"FED\";\n\t\tBanks[msg.sender].isCreated = true;\n\t\tlistOfBank.push(msg.sender);\n\t\temit LogListOfBank(\"FED\", msg.sender, msg.value);\n\t}\n\n\tmodifier onlyOwner{\n\t\trequire(owner == msg.sender);\n\t\t_;\n\t}\n\n\tmodifier isBankCreated{\n\t\trequire(Banks[msg.sender].isCreated == true, \"Bank doesn't exist\");\n\t\t_;\n\t}\n\n\t// add name to the bank Struct\n\tfunction createBank(string memory _name) public payable{\n\t\trequire(Banks[msg.sender].isCreated == false, \"You can only own one bank\");\n\t\trequire(bytes(_name).length < 21);\n\t\trequire(msg.value > 0);\n\t\tBanks[msg.sender].balance = msg.value;\n\t\tBanks[msg.sender].isCreated = true;\n\t\tBanks[msg.sender].name = _name;\n\t\tlistOfBank.push(msg.sender);\n\t\temit LogListOfBank(_name, msg.sender, msg.value);\n\t}\n\n\tfunction getBankLength() view public returns(uint256){\n\t\treturn listOfBank.length;\n\t}\n\n\tfunction getListOfBank() payable public returns(address[] memory){\n\t\treturn listOfBank;\n\t}\n\n\tfunction getListOfBankObj() payable public {\n\t\tfor(uint i=0; i < listOfBank.length; i++){\n\t\t\temit LogListOfBank(getBankName(listOfBank[i]), listOfBank[i], getBankBalance(listOfBank[i]));\n\t\t}\n\t}\n\n\tfunction getBankBalance(address _bankAddr) view public returns(uint256){\n\t\treturn Banks[_bankAddr].balance;\n\t}\n\n\tfunction getBankName(address _bankAddr) view public returns(string memory){\n\t\treturn Banks[_bankAddr].name;\n\t}\n\n\tfunction getBankInfos(address _bankAddr) view public returns(string memory, uint256, bool){\n\t\tBank memory p = Banks[_bankAddr];\n\t\treturn (p.name, p.balance, p.isCreated);\n\t}\n\n\t// Get the balance of the user\n\tfunction getUserHistory(address player) view public returns(int256){\n\t\treturn userHistory[player];\n\t}\n\n\t/*\n\t* As the timestamp can be control by the miner we need to set\n\t* a max limit per bet in the flip function.\n\t*/\n\tfunction pseudoRandom() private view returns (uint8) {\n\t\tuint256 firstRes = uint256(keccak256(abi.encodePacked(block.timestamp, block.difficulty)));\n\t\tuint8 result = uint8(firstRes.mod(251)); \n\t\treturn result;\n\t}\n\n\t/*\tError Cases\n\t*\n\t*\terror -1 Bet can't be more than 0.5\n\t*\terror -2 user bet could't be null\n\t*\terror -3 Contract address don't have enought found to pay the user\n\t*\terror -4 The value is too big regarding to the previous contract rules\n\t*\t\t\t and it will make fail the implicit cast for the player historic\n\t*\n\t*/\n\n\tfunction flip(address _bankAddr) payable public returns (bool){\n\t\t// To avoid the Martingale we need a limit\n\t\trequire(10 ether > msg.value, \"bet should be less than 10 eth\");\n\t\trequire(msg.value > 0, \"bet can't be 0\");\n\t\trequire(Banks[_bankAddr].balance >= msg.value, \"bank balance should be greater than the jackpot\");\n\n\t\t// Run the pseudorandom function\n\t\tuint8 randomResult = pseudoRandom();\n\n\t\tif(randomResult % 2 == 0){\n\t\t\tBanks[_bankAddr].balance = Banks[_bankAddr].balance.sub(msg.value);\n\t\t\tmsg.sender.transfer(msg.value.mul(2));\n\t\t\t// Not really safe to cast but the value is high enought to be a problem\n\t\t\tuserHistory[msg.sender] = userHistory[msg.sender].add(int256(msg.value));\n\t\t\temit ReturnValue(true);\n\t\t\treturn true;\n\t\t} else {\n\t\t\tBanks[_bankAddr].balance = Banks[_bankAddr].balance.add(msg.value);\n\t\t\t// Not really safe to cast but the value is high enought to be a problem\n\t\t\tuserHistory[msg.sender] = userHistory[msg.sender].sub(int256(msg.value));\n\t\t}\n\t\temit ReturnValue(false);\n\t\treturn false;\n\t}\n\n\tfunction sendMoneyToTheBank() public payable {\n\t\trequire(Banks[msg.sender].isCreated == true, \"You don't have a bank yet\");\n\t\tBanks[msg.sender].balance = Banks[msg.sender].balance.add(msg.value);\n\t}\n\n\tfunction isBankOwner(address _myCall) public view returns (bool){\n\t\tif (Banks[_myCall].isCreated == true)\n\t\t\treturn true;\n\t\treturn false;\n\t}\n\n\tfunction withdrawBankAccount() public payable isBankCreated{\n\t\trequire(Banks[msg.sender].balance != 0);\n\t\tmsg.sender.transfer(Banks[msg.sender].balance);\n\t\tBanks[msg.sender].balance = 0;\n\t}\n\n\tfunction destroyContract() public onlyOwner{\n\t\tselfdestruct(msg.sender);\n\t}\n}",
  "sourcePath": "/home/gabba/git/dapp_robe_the_bank/flip-coin/contracts/RobTheBank.sol",
  "compiler": {
    "name": "solc",
    "version": "0.5.0+commit.1d4f565a.Emscripten.clang"
  },
  "schemaVersion": "3.0.5",
  "updatedAt": "2020-01-20T17:54:21.074Z",
  "devdoc": {
    "methods": {}
  },
  "userdoc": {
    "methods": {}
  }
}