{
  "contractName": "RobTheBank",
  "abi": [
    {
      "inputs": [],
      "payable": true,
      "stateMutability": "payable",
      "type": "constructor"
    },
    {
      "anonymous": false,
      "inputs": [
        {
          "indexed": false,
          "internalType": "string",
          "name": "name",
          "type": "string"
        },
        {
          "indexed": false,
          "internalType": "address",
          "name": "addr",
          "type": "address"
        },
        {
          "indexed": false,
          "internalType": "uint256",
          "name": "balance",
          "type": "uint256"
        }
      ],
      "name": "LogListOfBank",
      "type": "event"
    },
    {
      "anonymous": false,
      "inputs": [
        {
          "indexed": false,
          "internalType": "bool",
          "name": "_value",
          "type": "bool"
        }
      ],
      "name": "ReturnValue",
      "type": "event"
    },
    {
      "constant": true,
      "inputs": [
        {
          "internalType": "address",
          "name": "",
          "type": "address"
        }
      ],
      "name": "Banks",
      "outputs": [
        {
          "internalType": "string",
          "name": "name",
          "type": "string"
        },
        {
          "internalType": "uint256",
          "name": "balance",
          "type": "uint256"
        },
        {
          "internalType": "bool",
          "name": "isCreated",
          "type": "bool"
        }
      ],
      "payable": false,
      "stateMutability": "view",
      "type": "function"
    },
    {
      "constant": true,
      "inputs": [
        {
          "internalType": "uint256",
          "name": "",
          "type": "uint256"
        }
      ],
      "name": "listOfBank",
      "outputs": [
        {
          "internalType": "address",
          "name": "",
          "type": "address"
        }
      ],
      "payable": false,
      "stateMutability": "view",
      "type": "function"
    },
    {
      "constant": true,
      "inputs": [],
      "name": "owner",
      "outputs": [
        {
          "internalType": "address",
          "name": "",
          "type": "address"
        }
      ],
      "payable": false,
      "stateMutability": "view",
      "type": "function"
    },
    {
      "constant": true,
      "inputs": [
        {
          "internalType": "address",
          "name": "",
          "type": "address"
        }
      ],
      "name": "userHistory",
      "outputs": [
        {
          "internalType": "int256",
          "name": "",
          "type": "int256"
        }
      ],
      "payable": false,
      "stateMutability": "view",
      "type": "function"
    },
    {
      "constant": false,
      "inputs": [
        {
          "internalType": "string",
          "name": "_name",
          "type": "string"
        }
      ],
      "name": "createBank",
      "outputs": [],
      "payable": true,
      "stateMutability": "payable",
      "type": "function"
    },
    {
      "constant": true,
      "inputs": [],
      "name": "getBankLength",
      "outputs": [
        {
          "internalType": "uint256",
          "name": "",
          "type": "uint256"
        }
      ],
      "payable": false,
      "stateMutability": "view",
      "type": "function"
    },
    {
      "constant": true,
      "inputs": [],
      "name": "getListOfBank",
      "outputs": [
        {
          "internalType": "address[]",
          "name": "",
          "type": "address[]"
        }
      ],
      "payable": false,
      "stateMutability": "view",
      "type": "function"
    },
    {
      "constant": false,
      "inputs": [],
      "name": "getListOfBankObj",
      "outputs": [],
      "payable": false,
      "stateMutability": "nonpayable",
      "type": "function"
    },
    {
      "constant": true,
      "inputs": [
        {
          "internalType": "address",
          "name": "_bankAddr",
          "type": "address"
        }
      ],
      "name": "getBankBalance",
      "outputs": [
        {
          "internalType": "uint256",
          "name": "",
          "type": "uint256"
        }
      ],
      "payable": false,
      "stateMutability": "view",
      "type": "function"
    },
    {
      "constant": true,
      "inputs": [
        {
          "internalType": "address",
          "name": "_bankAddr",
          "type": "address"
        }
      ],
      "name": "getBankName",
      "outputs": [
        {
          "internalType": "string",
          "name": "",
          "type": "string"
        }
      ],
      "payable": false,
      "stateMutability": "view",
      "type": "function"
    },
    {
      "constant": true,
      "inputs": [
        {
          "internalType": "address",
          "name": "_bankAddr",
          "type": "address"
        }
      ],
      "name": "getBankInfos",
      "outputs": [
        {
          "internalType": "string",
          "name": "",
          "type": "string"
        },
        {
          "internalType": "uint256",
          "name": "",
          "type": "uint256"
        },
        {
          "internalType": "bool",
          "name": "",
          "type": "bool"
        }
      ],
      "payable": false,
      "stateMutability": "view",
      "type": "function"
    },
    {
      "constant": true,
      "inputs": [
        {
          "internalType": "address",
          "name": "player",
          "type": "address"
        }
      ],
      "name": "getUserHistory",
      "outputs": [
        {
          "internalType": "int256",
          "name": "",
          "type": "int256"
        }
      ],
      "payable": false,
      "stateMutability": "view",
      "type": "function"
    },
    {
      "constant": false,
      "inputs": [
        {
          "internalType": "address",
          "name": "_bankAddr",
          "type": "address"
        }
      ],
      "name": "flip",
      "outputs": [
        {
          "internalType": "bool",
          "name": "",
          "type": "bool"
        }
      ],
      "payable": true,
      "stateMutability": "payable",
      "type": "function"
    },
    {
      "constant": false,
      "inputs": [],
      "name": "sendMoneyToTheBank",
      "outputs": [],
      "payable": true,
      "stateMutability": "payable",
      "type": "function"
    },
    {
      "constant": true,
      "inputs": [
        {
          "internalType": "address",
          "name": "_myCall",
          "type": "address"
        }
      ],
      "name": "isBankOwner",
      "outputs": [
        {
          "internalType": "bool",
          "name": "",
          "type": "bool"
        }
      ],
      "payable": false,
      "stateMutability": "view",
      "type": "function"
    },
    {
      "constant": false,
      "inputs": [],
      "name": "withdrawBankAccount",
      "outputs": [],
      "payable": true,
      "stateMutability": "payable",
      "type": "function"
    },
    {
      "constant": false,
      "inputs": [],
      "name": "destroyContract",
      "outputs": [],
      "payable": false,
      "stateMutability": "nonpayable",
      "type": "function"
    }
  ],
  "bytecode": "0x608060405233600260006101000a81548173ffffffffffffffffffffffffffffffffffffffff021916908373ffffffffffffffffffffffffffffffffffffffff16021790555067016345785d8a00003410156200005b57600080fd5b34600160003373ffffffffffffffffffffffffffffffffffffffff1673ffffffffffffffffffffffffffffffffffffffff168152602001908152602001600020600101819055506040518060400160405280600381526020017f4645440000000000000000000000000000000000000000000000000000000000815250600160003373ffffffffffffffffffffffffffffffffffffffff1673ffffffffffffffffffffffffffffffffffffffff16815260200190815260200160002060000190805190602001906200012f9291906200029a565b5060018060003373ffffffffffffffffffffffffffffffffffffffff1673ffffffffffffffffffffffffffffffffffffffff16815260200190815260200160002060020160006101000a81548160ff02191690831515021790555060033390806001815401808255809150509060018203906000526020600020016000909192909190916101000a81548173ffffffffffffffffffffffffffffffffffffffff021916908373ffffffffffffffffffffffffffffffffffffffff160217905550507fd7a1b9a787d4511e18da43439e6d3ff4fccd04e85bd75e977c960492575462cb333460405180806020018473ffffffffffffffffffffffffffffffffffffffff1673ffffffffffffffffffffffffffffffffffffffff168152602001838152602001828103825260038152602001807f4645440000000000000000000000000000000000000000000000000000000000815250602001935050505060405180910390a162000349565b828054600181600116156101000203166002900490600052602060002090601f016020900481019282601f10620002dd57805160ff19168380011785556200030e565b828001600101855582156200030e579182015b828111156200030d578251825591602001919060010190620002f0565b5b5090506200031d919062000321565b5090565b6200034691905b808211156200034257600081600090555060010162000328565b5090565b90565b61213880620003596000396000f3fe6080604052600436106100fe5760003560e01c80638004bc4e11610095578063bb19064011610064578063bb190640146105c8578063bfef5bd3146105d2578063c7f5abdc146106ae578063de8a40d51461070a578063f972797514610773576100fe565b80638004bc4e1461045357806388e1f9bb1461052f5780638da5cb5b14610546578063a3a6635a1461059d576100fe565b806323c9bfea116100d157806323c9bfea146102ae5780634fb3d3b1146102b8578063659510711461031d57806370cabda714610398576100fe565b806301da7b311461010357806304cdb171146101cd578063092a5cce14610232578063100cd71d14610249575b600080fd5b34801561010f57600080fd5b506101526004803603602081101561012657600080fd5b81019080803573ffffffffffffffffffffffffffffffffffffffff1690602001909291905050506107df565b6040518080602001828103825283818151815260200191508051906020019080838360005b83811015610192578082015181840152602081019050610177565b50505050905090810190601f1680156101bf5780820380516001836020036101000a031916815260200191505b509250505060405180910390f35b3480156101d957600080fd5b5061021c600480360360208110156101f057600080fd5b81019080803573ffffffffffffffffffffffffffffffffffffffff1690602001909291905050506108c3565b6040518082815260200191505060405180910390f35b34801561023e57600080fd5b5061024761090f565b005b34801561025557600080fd5b506102986004803603602081101561026c57600080fd5b81019080803573ffffffffffffffffffffffffffffffffffffffff169060200190929190505050610982565b6040518082815260200191505060405180910390f35b6102b661099a565b005b3480156102c457600080fd5b50610307600480360360208110156102db57600080fd5b81019080803573ffffffffffffffffffffffffffffffffffffffff169060200190929190505050610b8c565b6040518082815260200191505060405180910390f35b34801561032957600080fd5b506103566004803603602081101561034057600080fd5b8101908080359060200190929190505050610bd4565b604051808273ffffffffffffffffffffffffffffffffffffffff1673ffffffffffffffffffffffffffffffffffffffff16815260200191505060405180910390f35b610451600480360360208110156103ae57600080fd5b81019080803590602001906401000000008111156103cb57600080fd5b8201836020820111156103dd57600080fd5b803590602001918460018302840111640100000000831117156103ff57600080fd5b91908080601f016020809104026020016040519081016040528093929190818152602001838380828437600081840152601f19601f820116905080830192505050505050509192919290505050610c10565b005b34801561045f57600080fd5b506104a26004803603602081101561047657600080fd5b81019080803573ffffffffffffffffffffffffffffffffffffffff169060200190929190505050610f43565b604051808060200184815260200183151515158152602001828103825285818151815260200191508051906020019080838360005b838110156104f25780820151818401526020810190506104d7565b50505050905090810190601f16801561051f5780820380516001836020036101000a031916815260200191505b5094505050505060405180910390f35b34801561053b57600080fd5b50610544611012565b005b34801561055257600080fd5b5061055b6111c2565b604051808273ffffffffffffffffffffffffffffffffffffffff1673ffffffffffffffffffffffffffffffffffffffff16815260200191505060405180910390f35b3480156105a957600080fd5b506105b26111e8565b6040518082815260200191505060405180910390f35b6105d06111f5565b005b3480156105de57600080fd5b50610621600480360360208110156105f557600080fd5b81019080803573ffffffffffffffffffffffffffffffffffffffff1690602001909291905050506113d1565b604051808060200184815260200183151515158152602001828103825285818151815260200191508051906020019080838360005b83811015610671578082015181840152602081019050610656565b50505050905090810190601f16801561069e5780820380516001836020036101000a031916815260200191505b5094505050505060405180910390f35b6106f0600480360360208110156106c457600080fd5b81019080803573ffffffffffffffffffffffffffffffffffffffff169060200190929190505050611511565b604051808215151515815260200191505060405180910390f35b34801561071657600080fd5b506107596004803603602081101561072d57600080fd5b81019080803573ffffffffffffffffffffffffffffffffffffffff169060200190929190505050611a11565b604051808215151515815260200191505060405180910390f35b34801561077f57600080fd5b50610788611a82565b6040518080602001828103825283818151815260200191508051906020019060200280838360005b838110156107cb5780820151818401526020810190506107b0565b505050509050019250505060405180910390f35b6060600160008373ffffffffffffffffffffffffffffffffffffffff1673ffffffffffffffffffffffffffffffffffffffff1681526020019081526020016000206000018054600181600116156101000203166002900480601f0160208091040260200160405190810160405280929190818152602001828054600181600116156101000203166002900480156108b75780601f1061088c576101008083540402835291602001916108b7565b820191906000526020600020905b81548152906001019060200180831161089a57829003601f168201915b50505050509050919050565b6000600160008373ffffffffffffffffffffffffffffffffffffffff1673ffffffffffffffffffffffffffffffffffffffff168152602001908152602001600020600101549050919050565b3373ffffffffffffffffffffffffffffffffffffffff16600260009054906101000a900473ffffffffffffffffffffffffffffffffffffffff1673ffffffffffffffffffffffffffffffffffffffff161461096957600080fd5b3373ffffffffffffffffffffffffffffffffffffffff16ff5b60006020528060005260406000206000915090505481565b60011515600160003373ffffffffffffffffffffffffffffffffffffffff1673ffffffffffffffffffffffffffffffffffffffff16815260200190815260200160002060020160009054906101000a900460ff16151514610a63576040517f08c379a00000000000000000000000000000000000000000000000000000000081526004018080602001828103825260128152602001807f42616e6b20646f65736e2774206578697374000000000000000000000000000081525060200191505060405180910390fd5b6000600160003373ffffffffffffffffffffffffffffffffffffffff1673ffffffffffffffffffffffffffffffffffffffff168152602001908152602001600020600101541415610ab357600080fd5b6000600160003373ffffffffffffffffffffffffffffffffffffffff1673ffffffffffffffffffffffffffffffffffffffff1681526020019081526020016000206001015490506000600160003373ffffffffffffffffffffffffffffffffffffffff1673ffffffffffffffffffffffffffffffffffffffff168152602001908152602001600020600101819055503373ffffffffffffffffffffffffffffffffffffffff166108fc829081150290604051600060405180830381858888f19350505050158015610b88573d6000803e3d6000fd5b5050565b60008060008373ffffffffffffffffffffffffffffffffffffffff1673ffffffffffffffffffffffffffffffffffffffff168152602001908152602001600020549050919050565b60038181548110610be157fe5b906000526020600020016000915054906101000a900473ffffffffffffffffffffffffffffffffffffffff1681565b60001515600160003373ffffffffffffffffffffffffffffffffffffffff1673ffffffffffffffffffffffffffffffffffffffff16815260200190815260200160002060020160009054906101000a900460ff16151514610cd9576040517f08c379a00000000000000000000000000000000000000000000000000000000081526004018080602001828103825260198152602001807f596f752063616e206f6e6c79206f776e206f6e652062616e6b0000000000000081525060200191505060405180910390fd5b6015815110610ce757600080fd5b6000815111610cf557600080fd5b67016345785d8a0000341015610d0a57600080fd5b34600160003373ffffffffffffffffffffffffffffffffffffffff1673ffffffffffffffffffffffffffffffffffffffff1681526020019081526020016000206001018190555060018060003373ffffffffffffffffffffffffffffffffffffffff1673ffffffffffffffffffffffffffffffffffffffff16815260200190815260200160002060020160006101000a81548160ff02191690831515021790555080600160003373ffffffffffffffffffffffffffffffffffffffff1673ffffffffffffffffffffffffffffffffffffffff1681526020019081526020016000206000019080519060200190610e01929190611fa6565b5060033390806001815401808255809150509060018203906000526020600020016000909192909190916101000a81548173ffffffffffffffffffffffffffffffffffffffff021916908373ffffffffffffffffffffffffffffffffffffffff160217905550507fd7a1b9a787d4511e18da43439e6d3ff4fccd04e85bd75e977c960492575462cb81333460405180806020018473ffffffffffffffffffffffffffffffffffffffff1673ffffffffffffffffffffffffffffffffffffffff168152602001838152602001828103825285818151815260200191508051906020019080838360005b83811015610f04578082015181840152602081019050610ee9565b50505050905090810190601f168015610f315780820380516001836020036101000a031916815260200191505b5094505050505060405180910390a150565b6001602052806000526040600020600091509050806000018054600181600116156101000203166002900480601f016020809104026020016040519081016040528092919081815260200182805460018160011615610100020316600290048015610fef5780601f10610fc457610100808354040283529160200191610fef565b820191906000526020600020905b815481529060010190602001808311610fd257829003601f168201915b5050505050908060010154908060020160009054906101000a900460ff16905083565b60008090505b6003805490508110156111bf577fd7a1b9a787d4511e18da43439e6d3ff4fccd04e85bd75e977c960492575462cb6110866003838154811061105657fe5b9060005260206000200160009054906101000a900473ffffffffffffffffffffffffffffffffffffffff166107df565b6003838154811061109357fe5b9060005260206000200160009054906101000a900473ffffffffffffffffffffffffffffffffffffffff166110fe600385815481106110ce57fe5b9060005260206000200160009054906101000a900473ffffffffffffffffffffffffffffffffffffffff166108c3565b60405180806020018473ffffffffffffffffffffffffffffffffffffffff1673ffffffffffffffffffffffffffffffffffffffff168152602001838152602001828103825285818151815260200191508051906020019080838360005b8381101561117657808201518184015260208101905061115b565b50505050905090810190601f1680156111a35780820380516001836020036101000a031916815260200191505b5094505050505060405180910390a18080600101915050611018565b50565b600260009054906101000a900473ffffffffffffffffffffffffffffffffffffffff1681565b6000600380549050905090565b6000341161126b576040517f08c379a00000000000000000000000000000000000000000000000000000000081526004018080602001828103825260118152602001807f6d73672e76616c75652063616e2774203000000000000000000000000000000081525060200191505060405180910390fd5b60011515600160003373ffffffffffffffffffffffffffffffffffffffff1673ffffffffffffffffffffffffffffffffffffffff16815260200190815260200160002060020160009054906101000a900460ff16151514611334576040517f08c379a00000000000000000000000000000000000000000000000000000000081526004018080602001828103825260198152602001807f596f7520646f6e2774206861766520612062616e6b207965740000000000000081525060200191505060405180910390fd5b61138934600160003373ffffffffffffffffffffffffffffffffffffffff1673ffffffffffffffffffffffffffffffffffffffff16815260200190815260200160002060010154611b1090919063ffffffff16565b600160003373ffffffffffffffffffffffffffffffffffffffff1673ffffffffffffffffffffffffffffffffffffffff16815260200190815260200160002060010181905550565b60606000806113de612026565b600160008673ffffffffffffffffffffffffffffffffffffffff1673ffffffffffffffffffffffffffffffffffffffff168152602001908152602001600020604051806060016040529081600082018054600181600116156101000203166002900480601f0160208091040260200160405190810160405280929190818152602001828054600181600116156101000203166002900480156114c15780601f10611496576101008083540402835291602001916114c1565b820191906000526020600020905b8154815290600101906020018083116114a457829003601f168201915b50505050508152602001600182015481526020016002820160009054906101000a900460ff1615151515815250509050806000015181602001518260400151829250935093509350509193909250565b600067016345785d8a0000341015611591576040517f08c379a000000000000000000000000000000000000000000000000000000000815260040180806020018281038252601a8152602001807f6265742063616e2774206265206c657373207468616e20302c3100000000000081525060200191505060405180910390fd5b678ac7230489e80000341061160e576040517f08c379a000000000000000000000000000000000000000000000000000000000815260040180806020018281038252601e8152602001807f6265742073686f756c64206265206c657373207468616e20313020657468000081525060200191505060405180910390fd5b34600160008473ffffffffffffffffffffffffffffffffffffffff1673ffffffffffffffffffffffffffffffffffffffff1681526020019081526020016000206001015410156116a9576040517f08c379a000000000000000000000000000000000000000000000000000000000815260040180806020018281038252602f8152602001806120b1602f913960400191505060405180910390fd5b60006116b3611b98565b9050600060028260ff16816116c457fe5b0660ff16141561189c5761172334600160008673ffffffffffffffffffffffffffffffffffffffff1673ffffffffffffffffffffffffffffffffffffffff16815260200190815260200160002060010154611bef90919063ffffffff16565b600160008573ffffffffffffffffffffffffffffffffffffffff1673ffffffffffffffffffffffffffffffffffffffff168152602001908152602001600020600101819055503373ffffffffffffffffffffffffffffffffffffffff166108fc611797600234611c3990919063ffffffff16565b9081150290604051600060405180830381858888f193505050501580156117c2573d6000803e3d6000fd5b50611814346000803373ffffffffffffffffffffffffffffffffffffffff1673ffffffffffffffffffffffffffffffffffffffff16815260200190815260200160002054611cbf90919063ffffffff16565b6000803373ffffffffffffffffffffffffffffffffffffffff1673ffffffffffffffffffffffffffffffffffffffff168152602001908152602001600020819055507f0f757e2a96c8df9c79eb2552edd982d05317b3d7ae7a591b3a02572a9ebf64ee6001604051808215151515815260200191505060405180910390a16001915050611a0c565b6118f134600160008673ffffffffffffffffffffffffffffffffffffffff1673ffffffffffffffffffffffffffffffffffffffff16815260200190815260200160002060010154611b1090919063ffffffff16565b600160008573ffffffffffffffffffffffffffffffffffffffff1673ffffffffffffffffffffffffffffffffffffffff16815260200190815260200160002060010181905550611988346000803373ffffffffffffffffffffffffffffffffffffffff1673ffffffffffffffffffffffffffffffffffffffff16815260200190815260200160002054611d4d90919063ffffffff16565b6000803373ffffffffffffffffffffffffffffffffffffffff1673ffffffffffffffffffffffffffffffffffffffff168152602001908152602001600020819055507f0f757e2a96c8df9c79eb2552edd982d05317b3d7ae7a591b3a02572a9ebf64ee6000604051808215151515815260200191505060405180910390a160009150505b919050565b600060011515600160008473ffffffffffffffffffffffffffffffffffffffff1673ffffffffffffffffffffffffffffffffffffffff16815260200190815260200160002060020160009054906101000a900460ff1615151415611a785760019050611a7d565b600090505b919050565b60606003805480602002602001604051908101604052809291908181526020018280548015611b0657602002820191906000526020600020905b8160009054906101000a900473ffffffffffffffffffffffffffffffffffffffff1673ffffffffffffffffffffffffffffffffffffffff1681526020019060010190808311611abc575b5050505050905090565b600080828401905083811015611b8e576040517f08c379a000000000000000000000000000000000000000000000000000000000815260040180806020018281038252601b8152602001807f536166654d6174683a206164646974696f6e206f766572666c6f77000000000081525060200191505060405180910390fd5b8091505092915050565b600080424460405160200180838152602001828152602001925050506040516020818303038152906040528051906020012060001c90506000611be560fb83611ddb90919063ffffffff16565b9050809250505090565b6000611c3183836040518060400160405280601e81526020017f536166654d6174683a207375627472616374696f6e206f766572666c6f770000815250611e25565b905092915050565b600080831415611c4c5760009050611cb9565b6000828402905082848281611c5d57fe5b0414611cb4576040517f08c379a00000000000000000000000000000000000000000000000000000000081526004018080602001828103825260218152602001806120906021913960400191505060405180910390fd5b809150505b92915050565b600080828401905060008312158015611cd85750838112155b80611cee5750600083128015611ced57508381125b5b611d43576040517f08c379a000000000000000000000000000000000000000000000000000000000815260040180806020018281038252602181526020018061206f6021913960400191505060405180910390fd5b8091505092915050565b600080828403905060008312158015611d665750838113155b80611d7c5750600083128015611d7b57508381135b5b611dd1576040517f08c379a00000000000000000000000000000000000000000000000000000000081526004018080602001828103825260248152602001806120e06024913960400191505060405180910390fd5b8091505092915050565b6000611e1d83836040518060400160405280601881526020017f536166654d6174683a206d6f64756c6f206279207a65726f0000000000000000815250611ee5565b905092915050565b6000838311158290611ed2576040517f08c379a00000000000000000000000000000000000000000000000000000000081526004018080602001828103825283818151815260200191508051906020019080838360005b83811015611e97578082015181840152602081019050611e7c565b50505050905090810190601f168015611ec45780820380516001836020036101000a031916815260200191505b509250505060405180910390fd5b5060008385039050809150509392505050565b6000808314158290611f92576040517f08c379a00000000000000000000000000000000000000000000000000000000081526004018080602001828103825283818151815260200191508051906020019080838360005b83811015611f57578082015181840152602081019050611f3c565b50505050905090810190601f168015611f845780820380516001836020036101000a031916815260200191505b509250505060405180910390fd5b50828481611f9c57fe5b0690509392505050565b828054600181600116156101000203166002900490600052602060002090601f016020900481019282601f10611fe757805160ff1916838001178555612015565b82800160010185558215612015579182015b82811115612014578251825591602001919060010190611ff9565b5b5090506120229190612049565b5090565b604051806060016040528060608152602001600081526020016000151581525090565b61206b91905b8082111561206757600081600090555060010161204f565b5090565b9056fe5369676e6564536166654d6174683a206164646974696f6e206f766572666c6f77536166654d6174683a206d756c7469706c69636174696f6e206f766572666c6f7762616e6b2062616c616e63652073686f756c642062652067726561746572207468616e20746865206a61636b706f745369676e6564536166654d6174683a207375627472616374696f6e206f766572666c6f77a265627a7a723158202630ce32b9ab50d52303e5d19b50ea1c54267b386fbca4acadb9e311dc2ab95f64736f6c634300050c0032",
  "source": "pragma solidity ^0.5.0;\nimport '../client/node_modules/@openzeppelin/contracts/math/SafeMath.sol';\nimport '../client/node_modules/@openzeppelin/contracts/drafts/SignedSafeMath.sol';\n\n// Import SafeMath library from github (this import only works on Remix).\n//import \"https://github.com/OpenZeppelin/openzeppelin-solidity/contracts/math/SafeMath.sol\";\n\ncontract RobTheBank{\n\n\tusing SafeMath for uint256;\n\tusing SignedSafeMath for int256;\n\n    struct Bank {\n        string name;\n        uint256 balance;\n        bool isCreated;\n    }\n\n\tmapping (address => int256) public userHistory;\n\tmapping(address => Bank) public Banks;\n\taddress public owner;\n\taddress[] public listOfBank;\n\n\tevent ReturnValue(bool _value);\n    event LogListOfBank(string name, address addr, uint256 balance);\n\n\tconstructor() public payable{\n\t\towner = msg.sender;\n\n\t\t// Contract address\n\t\trequire(msg.value >= 0.1 ether);\n\t\tBanks[msg.sender].balance = msg.value;\n\t\tBanks[msg.sender].name = \"FED\";\n\t\tBanks[msg.sender].isCreated = true;\n\t\tlistOfBank.push(msg.sender);\n\t\temit LogListOfBank(\"FED\", msg.sender, msg.value);\n\t}\n\n\n\t/* Move Modifier to an other file*/\n\tmodifier onlyOwner{\n\t\trequire(owner == msg.sender);\n\t\t_;\n\t}\n\n\tmodifier messValueCantBeZero{\n\t\trequire(msg.value > 0 ether, \"msg.value can't 0\");\n\t\t_;\n\t}\n\n\tmodifier msgValueMin{\n\t\trequire(msg.value >= 0.1 ether, \"bet can't be less than 0,1\");\n\t\t_;\n\t}\n\n\tmodifier isBankCreated{\n\t\trequire(Banks[msg.sender].isCreated == true, \"Bank doesn't exist\");\n\t\t_;\n\t}\n\n\t// add name to the bank Struct\n\tfunction createBank(string memory _name) public payable{\n\t\trequire(Banks[msg.sender].isCreated == false, \"You can only own one bank\");\n\t\trequire(bytes(_name).length < 21);\n\t\trequire(bytes(_name).length > 0);\n\t\trequire(msg.value >= 0.1 ether);\n\t\tBanks[msg.sender].balance = msg.value;\n\t\tBanks[msg.sender].isCreated = true;\n\t\tBanks[msg.sender].name = _name;\n\t\tlistOfBank.push(msg.sender);\n\t\temit LogListOfBank(_name, msg.sender, msg.value);\n\t}\n\n\tfunction getBankLength() view public returns(uint256){\n\t\treturn listOfBank.length;\n\t}\n\n\tfunction getListOfBank() view public returns(address[] memory){\n\t\treturn listOfBank;\n\t}\n\n\t/* Todo test view */\n\tfunction getListOfBankObj() public {\n\t\tfor(uint i=0; i < listOfBank.length; i++){\n\t\t\temit LogListOfBank(getBankName(listOfBank[i]), listOfBank[i], getBankBalance(listOfBank[i]));\n\t\t}\n\t}\n\n\tfunction getBankBalance(address _bankAddr) view public returns(uint256){\n\t\treturn Banks[_bankAddr].balance;\n\t}\n\n\tfunction getBankName(address _bankAddr) view public returns(string memory){\n\t\treturn Banks[_bankAddr].name;\n\t}\n\n\tfunction getBankInfos(address _bankAddr) view public returns(string memory, uint256, bool){\n\t\tBank memory p = Banks[_bankAddr];\n\t\treturn (p.name, p.balance, p.isCreated);\n\t}\n\n\t// Get the balance of the user\n\tfunction getUserHistory(address player) view public returns(int256){\n\t\treturn userHistory[player];\n\t}\n\n\t/*\n\t* As the timestamp can be control by the miner we need to set\n\t* a max limit per bet in the flip function.\n\t*/\n\tfunction pseudoRandom() private view returns (uint8) {\n\t\tuint256 firstRes = uint256(keccak256(abi.encodePacked(block.timestamp, block.difficulty)));\n\t\tuint8 result = uint8(firstRes.mod(251));\n\t\treturn result;\n\t}\n\n\t/*\tError Cases\n\t*\n\t*\terror -1 Bet can't be more than 10\n\t*\terror -2 user bet could't be null\n\t*\terror -3 Contract address don't have enought found to pay the user\n\t*\terror -4 The value is too big regarding to the previous contract rules\n\t*\t\t\t and it will make fail the implicit cast for the player historic\n\t*\n\t*/\n\n\tfunction flip(address _bankAddr) public payable msgValueMin returns (bool){\n\t\t// To avoid the Martingale we need a limit\n\t\trequire(msg.value < 10 ether, \"bet should be less than 10 eth\");\n\t\trequire(Banks[_bankAddr].balance >= msg.value, \"bank balance should be greater than the jackpot\");\n\n\t\t// Run the pseudorandom function\n\t\tuint8 randomResult = pseudoRandom();\n\n\t\tif(randomResult % 2 == 0){\n\t\t\tBanks[_bankAddr].balance = Banks[_bankAddr].balance.sub(msg.value);\n\t\t\tmsg.sender.transfer(msg.value.mul(2));\n\t\t\t// Not really safe to cast but the value is high enought to be a problem\n\t\t\tuserHistory[msg.sender] = userHistory[msg.sender].add(int256(msg.value));\n\t\t\temit ReturnValue(true);\n\t\t\treturn true;\n\t\t} else {\n\t\t\tBanks[_bankAddr].balance = Banks[_bankAddr].balance.add(msg.value);\n\t\t\t// Not really safe to cast but the value is high enought to be a problem\n\t\t\tuserHistory[msg.sender] = userHistory[msg.sender].sub(int256(msg.value));\n\t\t}\n\t\temit ReturnValue(false);\n\t\treturn false;\n\t}\n\n\tfunction sendMoneyToTheBank() public payable messValueCantBeZero {\n\t\trequire(Banks[msg.sender].isCreated == true, \"You don't have a bank yet\");\n\t\tBanks[msg.sender].balance = Banks[msg.sender].balance.add(msg.value);\n\t}\n\n\tfunction isBankOwner(address _myCall) public view returns (bool){\n\t\tif (Banks[_myCall].isCreated == true)\n\t\t\treturn true;\n\t\treturn false;\n\t}\n\n\tfunction withdrawBankAccount() public payable isBankCreated{\n\t\trequire(Banks[msg.sender].balance != 0);\n\t\tuint value = Banks[msg.sender].balance;\n\t\tBanks[msg.sender].balance = 0;\n\t\tmsg.sender.transfer(value);\n\t}\n\n\tfunction destroyContract() public onlyOwner{\n\t\tselfdestruct(msg.sender);\n\t}\n}",
  "sourcePath": "/Users/gabba/git/Dapp_flip_coin/contracts/RobTheBank.sol",
  "compiler": {
    "name": "solc",
    "version": "0.5.12+commit.7709ece9.Emscripten.clang"
  },
  "schemaVersion": "3.0.16",
  "updatedAt": "2020-01-31T21:47:06.689Z",
  "devdoc": {
    "methods": {}
  },
  "userdoc": {
    "methods": {}
  }
}