{
  "contractName": "RobTheBank",
  "abi": [
    {
      "inputs": [],
      "payable": true,
      "stateMutability": "payable",
      "type": "constructor",
      "signature": "constructor"
    },
    {
      "anonymous": false,
      "inputs": [
        {
          "indexed": false,
          "internalType": "string",
          "name": "name",
          "type": "string"
        },
        {
          "indexed": false,
          "internalType": "address",
          "name": "addr",
          "type": "address"
        },
        {
          "indexed": false,
          "internalType": "uint256",
          "name": "balance",
          "type": "uint256"
        }
      ],
      "name": "LogListOfBank",
      "type": "event",
      "signature": "0xd7a1b9a787d4511e18da43439e6d3ff4fccd04e85bd75e977c960492575462cb"
    },
    {
      "anonymous": false,
      "inputs": [
        {
          "indexed": false,
          "internalType": "string",
          "name": "description",
          "type": "string"
        },
        {
          "indexed": false,
          "internalType": "bytes32",
          "name": "_queryId",
          "type": "bytes32"
        }
      ],
      "name": "LogNewProvableQuery",
      "type": "event",
      "signature": "0x03f87726502eec329641d0b704cac4f62e20440c8e341563a08a35b50dc0c20f"
    },
    {
      "anonymous": false,
      "inputs": [
        {
          "indexed": false,
          "internalType": "address",
          "name": "_sender",
          "type": "address"
        },
        {
          "indexed": false,
          "internalType": "uint256",
          "name": "_randomNumber",
          "type": "uint256"
        },
        {
          "indexed": false,
          "internalType": "bool",
          "name": "_value",
          "type": "bool"
        }
      ],
      "name": "ReturnValue",
      "type": "event",
      "signature": "0xb73925f6e74e144b5ddf4b6627fa64d5125114aa9a768a7aa8f8d50574c3e8f7"
    },
    {
      "anonymous": false,
      "inputs": [
        {
          "indexed": false,
          "internalType": "bytes32",
          "name": "_queryId",
          "type": "bytes32"
        },
        {
          "indexed": false,
          "internalType": "uint256",
          "name": "_randomNumber",
          "type": "uint256"
        },
        {
          "indexed": false,
          "internalType": "bool",
          "name": "_value",
          "type": "bool"
        }
      ],
      "name": "ReturnValue",
      "type": "event",
      "signature": "0x4bb3b968f91469a56100572c5bddb09d1b3a1f965fa20f91c04ad626b07e852e"
    },
    {
      "anonymous": false,
      "inputs": [
        {
          "indexed": false,
          "internalType": "uint256",
          "name": "randomNumber",
          "type": "uint256"
        }
      ],
      "name": "generatedRandomNumber",
      "type": "event",
      "signature": "0xc13d60fe9dffdb6908d2d446cd18134373a51db0738ee04f296eeb9128121cbc"
    },
    {
      "anonymous": false,
      "inputs": [
        {
          "indexed": false,
          "internalType": "string",
          "name": "description",
          "type": "string"
        }
      ],
      "name": "proofFailed",
      "type": "event",
      "signature": "0x1e373602a982cba4fefe314b2af324bcaeedf126d33b2c36786875c0e7e7b38f"
    },
    {
      "constant": true,
      "inputs": [
        {
          "internalType": "uint256",
          "name": "",
          "type": "uint256"
        }
      ],
      "name": "listOfBank",
      "outputs": [
        {
          "internalType": "address",
          "name": "",
          "type": "address"
        }
      ],
      "payable": false,
      "stateMutability": "view",
      "type": "function",
      "signature": "0x65951071"
    },
    {
      "constant": true,
      "inputs": [],
      "name": "owner",
      "outputs": [
        {
          "internalType": "address",
          "name": "",
          "type": "address"
        }
      ],
      "payable": false,
      "stateMutability": "view",
      "type": "function",
      "signature": "0x8da5cb5b"
    },
    {
      "constant": false,
      "inputs": [
        {
          "internalType": "string",
          "name": "_name",
          "type": "string"
        },
        {
          "internalType": "bool",
          "name": "_isUsingOracle",
          "type": "bool"
        }
      ],
      "name": "createBank",
      "outputs": [],
      "payable": true,
      "stateMutability": "payable",
      "type": "function",
      "signature": "0x417f087f"
    },
    {
      "constant": true,
      "inputs": [],
      "name": "getBankLength",
      "outputs": [
        {
          "internalType": "uint256",
          "name": "",
          "type": "uint256"
        }
      ],
      "payable": false,
      "stateMutability": "view",
      "type": "function",
      "signature": "0xa3a6635a"
    },
    {
      "constant": true,
      "inputs": [],
      "name": "getListOfBank",
      "outputs": [
        {
          "internalType": "address[]",
          "name": "",
          "type": "address[]"
        }
      ],
      "payable": false,
      "stateMutability": "view",
      "type": "function",
      "signature": "0xf9727975"
    },
    {
      "constant": false,
      "inputs": [],
      "name": "getListOfBankObj",
      "outputs": [],
      "payable": false,
      "stateMutability": "nonpayable",
      "type": "function",
      "signature": "0x88e1f9bb"
    },
    {
      "constant": true,
      "inputs": [
        {
          "internalType": "address",
          "name": "_bankAddr",
          "type": "address"
        }
      ],
      "name": "getBankBalance",
      "outputs": [
        {
          "internalType": "uint256",
          "name": "",
          "type": "uint256"
        }
      ],
      "payable": false,
      "stateMutability": "view",
      "type": "function",
      "signature": "0x04cdb171"
    },
    {
      "constant": true,
      "inputs": [
        {
          "internalType": "address",
          "name": "_bankAddr",
          "type": "address"
        }
      ],
      "name": "getBankName",
      "outputs": [
        {
          "internalType": "string",
          "name": "",
          "type": "string"
        }
      ],
      "payable": false,
      "stateMutability": "view",
      "type": "function",
      "signature": "0x01da7b31"
    },
    {
      "constant": true,
      "inputs": [
        {
          "internalType": "address",
          "name": "_bankAddr",
          "type": "address"
        }
      ],
      "name": "getBankInfos",
      "outputs": [
        {
          "internalType": "string",
          "name": "",
          "type": "string"
        },
        {
          "internalType": "uint256",
          "name": "",
          "type": "uint256"
        },
        {
          "internalType": "bool",
          "name": "",
          "type": "bool"
        },
        {
          "internalType": "bool",
          "name": "",
          "type": "bool"
        }
      ],
      "payable": false,
      "stateMutability": "view",
      "type": "function",
      "signature": "0xbfef5bd3"
    },
    {
      "constant": true,
      "inputs": [
        {
          "internalType": "address",
          "name": "player",
          "type": "address"
        }
      ],
      "name": "getUserHistory",
      "outputs": [
        {
          "internalType": "int256",
          "name": "",
          "type": "int256"
        }
      ],
      "payable": false,
      "stateMutability": "view",
      "type": "function",
      "signature": "0x4fb3d3b1"
    },
    {
      "constant": false,
      "inputs": [],
      "name": "sendMoneyToTheBank",
      "outputs": [],
      "payable": true,
      "stateMutability": "payable",
      "type": "function",
      "signature": "0xbb190640"
    },
    {
      "constant": true,
      "inputs": [
        {
          "internalType": "address",
          "name": "_myCall",
          "type": "address"
        }
      ],
      "name": "isBankOwner",
      "outputs": [
        {
          "internalType": "bool",
          "name": "",
          "type": "bool"
        }
      ],
      "payable": false,
      "stateMutability": "view",
      "type": "function",
      "signature": "0xde8a40d5"
    },
    {
      "constant": false,
      "inputs": [],
      "name": "withdrawBankAccount",
      "outputs": [],
      "payable": true,
      "stateMutability": "payable",
      "type": "function",
      "signature": "0x23c9bfea"
    },
    {
      "constant": false,
      "inputs": [],
      "name": "getCurrentOraclePrice",
      "outputs": [
        {
          "internalType": "uint256",
          "name": "price",
          "type": "uint256"
        }
      ],
      "payable": true,
      "stateMutability": "payable",
      "type": "function",
      "signature": "0xa1b58a77"
    },
    {
      "constant": false,
      "inputs": [
        {
          "internalType": "bytes32",
          "name": "_myid",
          "type": "bytes32"
        },
        {
          "internalType": "string",
          "name": "_result",
          "type": "string"
        }
      ],
      "name": "__callback",
      "outputs": [],
      "payable": false,
      "stateMutability": "nonpayable",
      "type": "function",
      "signature": "0x27dc297e"
    },
    {
      "constant": false,
      "inputs": [
        {
          "internalType": "bytes32",
          "name": "_queryId",
          "type": "bytes32"
        },
        {
          "internalType": "string",
          "name": "_result",
          "type": "string"
        },
        {
          "internalType": "bytes",
          "name": "_proof",
          "type": "bytes"
        }
      ],
      "name": "__callback",
      "outputs": [],
      "payable": false,
      "stateMutability": "nonpayable",
      "type": "function",
      "signature": "0x38bbfa50"
    },
    {
      "constant": false,
      "inputs": [
        {
          "internalType": "address",
          "name": "_bankAddr",
          "type": "address"
        },
        {
          "internalType": "bool",
          "name": "_isBankUsingOracle",
          "type": "bool"
        }
      ],
      "name": "flip",
      "outputs": [],
      "payable": true,
      "stateMutability": "payable",
      "type": "function",
      "signature": "0x2d7c0e3c"
    },
    {
      "constant": false,
      "inputs": [],
      "name": "destroyContract",
      "outputs": [],
      "payable": true,
      "stateMutability": "payable",
      "type": "function",
      "signature": "0x092a5cce"
    }
  ],
  "bytecode": "0x60078054600160a060020a0319163317905560c0604052600360809081527f464544000000000000000000000000000000000000000000000000000000000060a0526200005a903490600180640100000000620000e0810204565b6200006e336401000000006200013f810204565b60408051336020820152348183015260608082526003908201527f4645440000000000000000000000000000000000000000000000000000000000608082015290517fd7a1b9a787d4511e18da43439e6d3ff4fccd04e85bd75e977c960492575462cb9181900360a00190a162000236565b336000908152600960209081526040909120600181018690558451620001099286019062000191565b50336000908152600960205260409020600201805460ff19169215159290921761ff001916610100911515919091021790555050565b600a80546001810182556000919091527fc65a7bb8d6351c1cf70c95a316cc6a92839c986682d98bc35f958f4883f9d2a8018054600160a060020a031916600160a060020a0392909216919091179055565b828054600181600116156101000203166002900490600052602060002090601f016020900481019282601f10620001d457805160ff191683800117855562000204565b8280016001018555821562000204579182015b8281111562000204578251825591602001919060010190620001e7565b506200021292915062000216565b5090565b6200023391905b808211156200021257600081556001016200021d565b90565b61460580620002466000396000f3fe60806040526004361061012d5760003560e060020a9004806365951071116100a9578063a3a6635a11610078578063bfef5bd31161005d578063bfef5bd3146105c8578063de8a40d51461068c578063f9727975146106d35761012d565b8063a3a6635a146105ab578063bb190640146105c05761012d565b8063659510711461053357806388e1f9bb146105795780638da5cb5b1461058e578063a1b58a77146105a35761012d565b806327dc297e1161010057806338bbfa50116100e557806338bbfa501461031a578063417f087f146104595780634fb3d3b1146105005761012d565b806327dc297e146102335780632d7c0e3c146102ec5761012d565b806301da7b311461013257806304cdb171146101dc578063092a5cce1461022157806323c9bfea1461022b575b600080fd5b34801561013e57600080fd5b506101656004803603602081101561015557600080fd5b5035600160a060020a031661073b565b60405160208082528190810183818151815260200191508051906020019080838360005b838110156101a1578082015183820152602001610189565b50505050905090810190601f1680156101ce5780820380516001836020036101000a031916815260200191505b509250505060405180910390f35b3480156101e857600080fd5b5061020f600480360360208110156101ff57600080fd5b5035600160a060020a03166107f8565b60405190815260200160405180910390f35b61022961081a565b005b610229610834565b34801561023f57600080fd5b506102296004803603604081101561025657600080fd5b8135919081019060408101602082013564010000000081111561027857600080fd5b82018360208201111561028a57600080fd5b803590602001918460018302840111640100000000831117156102ac57600080fd5b91908080601f016020809104026020016040519081016040528181529291906020840183838082843760009201919091525092955061091e945050505050565b6102296004803603604081101561030257600080fd5b50600160a060020a0381351690602001351515610955565b34801561032657600080fd5b506102296004803603606081101561033d57600080fd5b8135919081019060408101602082013564010000000081111561035f57600080fd5b82018360208201111561037157600080fd5b8035906020019184600183028401116401000000008311171561039357600080fd5b91908080601f016020809104026020016040519081016040528181529291906020840183838082843760009201919091525092959493602081019350359150506401000000008111156103e557600080fd5b8201836020820111156103f757600080fd5b8035906020019184600183028401116401000000008311171561041957600080fd5b91908080601f0160208091040260200160405190810160405281815292919060208401838380828437600092019190915250929550610aed945050505050565b6102296004803603604081101561046f57600080fd5b81019060208101813564010000000081111561048a57600080fd5b82018360208201111561049c57600080fd5b803590602001918460018302840111640100000000831117156104be57600080fd5b91908080601f01602080910402602001604051908101604052818152929190602084018383808284376000920191909152509295505050503515159050610d0b565b34801561050c57600080fd5b5061020f6004803603602081101561052357600080fd5b5035600160a060020a0316610e77565b34801561053f57600080fd5b5061055d6004803603602081101561055657600080fd5b5035610e96565b604051600160a060020a03909116815260200160405180910390f35b34801561058557600080fd5b50610229610ebc565b34801561059a57600080fd5b5061055d610ffc565b61020f61100b565b3480156105b757600080fd5b5061020f61104f565b610229611055565b3480156105d457600080fd5b506105fb600480360360208110156105eb57600080fd5b5035600160a060020a031661115e565b604051602081018490528215156040820152811515606082015260808082528190810186818151815260200191508051906020019080838360005b8381101561064e578082015183820152602001610636565b50505050905090810190601f16801561067b5780820380516001836020036101000a031916815260200191505b509550505050505060405180910390f35b34801561069857600080fd5b506106bf600480360360208110156106af57600080fd5b5035600160a060020a031661127f565b604051901515815260200160405180910390f35b3480156106df57600080fd5b506106e86112b8565b60405160208082528190810183818151815260200191508051906020019060200280838360005b8381101561072757808201518382015260200161070f565b505050509050019250505060405180910390f35b600160a060020a03811660009081526009602052606090604090208054600260001961010060018416150201909116046020601f820181900481020160405190810160405280929190818152602001828054600181600116156101000203166002900480156107eb5780601f106107c0576101008083540402835291602001916107eb565b820191906000526020600020905b8154815290600101906020018083116107ce57829003601f168201915b505050505090505b919050565b600160a060020a03811660009081526009602052604081206001015492915050565b600754600160a060020a0316331461083157600080fd5b33ff5b3360009081526009602052604090206002015460ff1615156001146108a7576040516000805160206144f6833981519152815260206004820152601260248201527f42616e6b20646f65736e27742065786973740000000000000000000000000000604482015260640160405180910390fd5b336000908152600960205260409020600101546108c357600080fd5b33600090815260096020526040812060010154336000908152600960205290915060408120600101553381156108fc0282604051600060405180830381858888f1935050505015801561091a573d6000803e3d6000fd5b5050565b61091a82826000604051818152601f19601f830116810160200160405290801561094f576020820181803883390190505b50610aed565b678ac7230489e8000034106109b8576040516000805160206144f6833981519152815260206004820152601e60248201527f6265742073686f756c64206265206c657373207468616e203130206574680000604482015260640160405180910390fd5b33600090815260056020526040902054610100900460ff16610a1e5733600090815260056020526001906040902080549115156101000261ff0019909216919091179055336000908152600560205260019060409020805460ff19169115159190911790555b3360009081526005602052604090205460ff161515600114610a79576040516000805160206144f6833981519152815260040180806020018281038252603b8152602001806144bb603b913960400191505060405180910390fd5b336000908152600560205260408120805460ff191691151591909117905580151560011415610ab057610aab8261131a565b61091a565b6000610aba61144e565b9050610ac6818461149c565b50336000908152600560205260019060409020805460ff1916911515919091179055505050565b60008381526006602052604090206003015460ff16610b0b57600080fd5b610b1361164a565b600160a060020a031633600160a060020a031614610b3057600080fd5b610b3b838383611829565b60ff1615610b93577f1e373602a982cba4fefe314b2af324bcaeedf126d33b2c36786875c0e7e7b38f60405180806020018281038252602d81526020018061446d602d913960400191505060405180910390a1610d06565b60ff600081846040516020018082805190602001908083835b60208310610bcb5780518252601f199092019160209182019101610bac565b6001836020036101000a03801982511681845116179092525050509190910192506040915050516020818303038152906040528051906020012081610c0c57fe5b0690506000610c228260fb63ffffffff61196e16565b90506000610c3082886119ae565b90507f4bb3b968f91469a56100572c5bddb09d1b3a1f965fa20f91c04ad626b07e852e87838360405192835260ff909116602083015215156040808301919091526060909101905180910390a1600087815260066020526040812054600160a060020a03166000818152600560205290915060019060409020805460ff19169115159190911790556000888152600660205260409020805473ffffffffffffffffffffffffffffffffffffffff199081168255600182018054909116905560006002820155600301805460ff1916905550505050505b505050565b3360009081526009602052604090206002015460ff1615610d7a576040516000805160206144f6833981519152815260206004820152601960248201527f596f752063616e206f6e6c79206f776e206f6e652062616e6b00000000000000604482015260640160405180910390fd5b6015825110610d8857600080fd5b6000825111610d9657600080fd5b67016345785d8a0000341015610dab57600080fd5b610db83483600184611b97565b610dc133611c22565b7fd7a1b9a787d4511e18da43439e6d3ff4fccd04e85bd75e977c960492575462cb823334604051600160a060020a03831660208201526040810182905260608082528190810185818151815260200191508051906020019080838360005b83811015610e37578082015183820152602001610e1f565b50505050905090810190601f168015610e645780820380516001836020036101000a031916815260200191505b5094505050505060405180910390a15050565b600160a060020a03811660009081526008602052604081205492915050565b600a8181548110610ea357fe5b9060005260206000200154600160a060020a0316905081565b60005b600a54811015610ff9577fd7a1b9a787d4511e18da43439e6d3ff4fccd04e85bd75e977c960492575462cb610f13600a8381548110610efa57fe5b9060005260206000200154600160a060020a031661073b565b600a8381548110610f2057fe5b9060005260206000200154600a8054600160a060020a0390921691610f63919086908110610f4a57fe5b9060005260206000200154600160a060020a03166107f8565b604051600160a060020a03831660208201526040810182905260608082528190810185818151815260200191508051906020019080838360005b83811015610fb5578082015183820152602001610f9d565b50505050905090810190601f168015610fe25780820380516001836020036101000a031916815260200191505b5094505050505060405180910390a1600101610ebf565b50565b600754600160a060020a031681565b600061104960405160408082019052600681527f52616e646f6d00000000000000000000000000000000000000000000000000006020820152611c6c565b90505b90565b600a5490565b600034116110b1576040516000805160206144f6833981519152815260206004820152601160248201527f6d73672e76616c75652063616e27742030000000000000000000000000000000604482015260640160405180910390fd5b3360009081526009602052604090206002015460ff161515600114611124576040516000805160206144f6833981519152815260206004820152601960248201527f596f7520646f6e2774206861766520612062616e6b2079657400000000000000604482015260640160405180910390fd5b336000908152600960205261114990349060409020600101549063ffffffff611ebb16565b33600090815260096020526040902060010155565b6060600080600061116d614370565b600160a060020a0386166000908152600960205260409020604051806080016040529081600082018054600181600116156101000203166002900480601f0160208091040260200160405190810160405280929190818152602001828054600181600116156101000203166002900480156112295780601f106111fe57610100808354040283529160200191611229565b820191906000526020600020905b81548152906001019060200180831161120c57829003601f168201915b50505091835250506001820154602082015260029091015460ff80821615156040840152610100909104161515606090910152905080518160200151826040015183606001519299919850965090945092505050565b600160a060020a03811660009081526009602052604081206002015460ff161515600114156112b0575060016107f3565b506000919050565b6060600a80548060200260200160405190810160405280929190818152602001828054801561131057602002820191906000526020600020905b8154600160a060020a031681526001909101906020018083116112f2575b5050505050905090565b600062030d408161132d81600184611f1c565b6000818152600660205290915060019060409020600301805460ff191691151591909117905560008181526006602052339060409020805473ffffffffffffffffffffffffffffffffffffffff1916600160a060020a0392909216919091179055600081815260066020523490604090206002015560008181526006602052849060409020600101805473ffffffffffffffffffffffffffffffffffffffff1916600160a060020a03929092169190911790553360009081526005602052819060409020600101557f03f87726502eec329641d0b704cac4f62e20440c8e341563a08a35b50dc0c20f81604051808060200183815260200182810382526036815260200180614577603691396040019250505060405180910390a150505050565b6000804244604051602001808381526020018281526020019250505060405160208183030381529060405280519060200120905060006114958260fb63ffffffff61196e16565b9250505090565b6000806001841661156c57600160a060020a038316600090815260096020526114d590349060409020600101549063ffffffff61240c16565b600160a060020a038416600090815260096020526040902060010155336108fc61150634600263ffffffff61244c16565b9081150290604051600060405180830381858888f19350505050158015611531573d6000803e3d6000fd5b50336000908152600860205261155490349060409020549063ffffffff6124ad16565b336000908152600860205260409020555060016115ec565b600160a060020a0383166000908152600960205261159a90349060409020600101549063ffffffff611ebb16565b600160a060020a03841660009081526009602052604090206001015533600090815260086020526115d890349060409020549063ffffffff61251a16565b336000908152600860205260409020555060005b7fb73925f6e74e144b5ddf4b6627fa64d5125114aa9a768a7aa8f8d50574c3e8f7338583604051600160a060020a03909316835260ff909116602083015215156040808301919091526060909101905180910390a190505b92915050565b600154600090600160a060020a03161580611677575060015461167590600160a060020a0316612587565b155b1561168857611686600061258b565b505b600154600160a060020a03166338cc48316040518163ffffffff1660e060020a028152600401602060405180830381600087803b1580156116c857600080fd5b505af11580156116dc573d6000803e3d6000fd5b505050506040513d60208110156116f257600080fd5b810190808051600054600160a060020a0390811691161492506117b391505057600154600160a060020a03166338cc48316040518163ffffffff1660e060020a028152600401602060405180830381600087803b15801561175257600080fd5b505af1158015611766573d6000803e3d6000fd5b505050506040513d602081101561177c57600080fd5b8101908080516000805473ffffffffffffffffffffffffffffffffffffffff1916600160a060020a03929092169190911790555050505b600054600160a060020a031663c281d19e6040518163ffffffff1660e060020a02815260040160206040518083038186803b1580156117f157600080fd5b505afa158015611805573d6000803e3d6000fd5b505050506040513d602081101561181b57600080fd5b810190808051935050505090565b60008160008151811061183857fe5b602001015160f860020a900460f860020a027effffffffffffffffffffffffffffffffffffffffffffffffffffffffffffff19167f4c000000000000000000000000000000000000000000000000000000000000001415806118fa5750816001815181106118a257fe5b602001015160f860020a900460f860020a027effffffffffffffffffffffffffffffffffffffffffffffffffffffffffffff19167f500000000000000000000000000000000000000000000000000000000000000014155b8061192e575060018260028151811061190f57fe5b602001015160f860020a900460f860020a0260f860020a900460ff1614155b1561193b57506001611967565b600061195083868661194b612595565b61262e565b905080611961576002915050611967565b60009150505b9392505050565b6000611967838360405160408082019052601881527f536166654d6174683a206d6f64756c6f206279207a65726f00000000000000006020820152612c64565b600081815260066020528080604081205460008581526006602052600160a060020a039091169150604081206001015460008681526006602052600160a060020a0390911691506040812060020154905060028760ff1681611a0c57fe5b0660ff1660001415611af957600160a060020a03821660009081526009602052611a4690829060409020600101549063ffffffff61240c16565b600160a060020a038316600090815260096020526040902060010155600160a060020a0383166108fc611a8034600263ffffffff61244c16565b9081150290604051600060405180830381858888f19350505050158015611aab573d6000803e3d6000fd5b50600160a060020a03831660009081526008602052611ad790829060409020549063ffffffff6124ad16565b600160a060020a03841660009081526008602052604090205560019350611b8c565b600160a060020a03821660009081526009602052611b2790829060409020600101549063ffffffff611ebb16565b600160a060020a038316600090815260096020526040902060010155600160a060020a03831660009081526008602052611b6e90829060409020549063ffffffff61251a16565b600160a060020a038416600090815260086020526040902055600093505b509195945050505050565b3360009081526009602052849060409020600101553360009081526009602052839060409020908051611bce929160200190614396565b503360009081526009602052829060409020600201805460ff1916911515919091179055336000908152600960205281906040902060020180549115156101000261ff001990921691909117905550505050565b600a805460018101808355600092835283929091906020902001805473ffffffffffffffffffffffffffffffffffffffff1916600160a060020a0393909316929092179091555050565b600154600090600160a060020a03161580611c995750600154611c9790600160a060020a0316612587565b155b15611caa57611ca8600061258b565b505b600154600160a060020a03166338cc48316040518163ffffffff1660e060020a028152600401602060405180830381600087803b158015611cea57600080fd5b505af1158015611cfe573d6000803e3d6000fd5b505050506040513d6020811015611d1457600080fd5b810190808051600054600160a060020a039081169116149250611dd591505057600154600160a060020a03166338cc48316040518163ffffffff1660e060020a028152600401602060405180830381600087803b158015611d7457600080fd5b505af1158015611d88573d6000803e3d6000fd5b505050506040513d6020811015611d9e57600080fd5b8101908080516000805473ffffffffffffffffffffffffffffffffffffffff1916600160a060020a03929092169190911790555050505b600054600160a060020a031663524f3889836040518263ffffffff1660e060020a0281526004018080602001828103825283818151815260200191508051906020019080838360005b83811015611e36578082015183820152602001611e1e565b50505050905090810190601f168015611e635780820380516001836020036101000a031916815260200191505b5092505050602060405180830381600087803b158015611e8257600080fd5b505af1158015611e96573d6000803e3d6000fd5b505050506040513d6020811015611eac57600080fd5b81019080805195945050505050565b600082820183811015611967576040516000805160206144f6833981519152815260206004820152601b60248201527f536166654d6174683a206164646974696f6e206f766572666c6f770000000000604482015260640160405180910390fd5b60008083118015611f2e575060208311155b611f3757600080fd5b600a8402935060606001604051818152601f19601f8301168101602001604052908015611f6b576020820181803883390190505b5090508360f860020a0281600081518110611f8257fe5b60200101907effffffffffffffffffffffffffffffffffffffffffffffffffffffffffffff1916908160001a90535060606020604051818152601f19601f8301168101602001604052908015611fdf576020820181803883390190505b50905060606020604051818152601f19601f8301168101602001604052908015612010576020820181803883390190505b509050600061201d612d0b565b90506020835242411860014303401860208401526020825280602083015260606020604051818152601f19601f8301168101602001604052908015612069576020820181803883390190505b50905088602082015260606008604051818152601f19601f83011681016020016040529080156120a0576020820181803883390190505b5090506120b38260186008846000612eb2565b506120bc614414565b6040518060800160405280878152602001888152602001868152602001848152509050600061211f60405160408082019052600681527f72616e646f6d00000000000000000000000000000000000000000000000000006020820152838c612efc565b905060606008604051818152601f19601f830116810160200160405290801561214f576020820181803883390190505b509050602084015160f860020a810460278301537e01000000000000000000000000000000000000000000000000000000000000810460268301537d0100000000000000000000000000000000000000000000000000000000008104602583015360e060020a810460248301537b01000000000000000000000000000000000000000000000000000000810460238301537a0100000000000000000000000000000000000000000000000000008104602283015379010000000000000000000000000000000000000000000000000081046021830153780100000000000000000000000000000000000000000000000081046020830153506123fc82826020860151600287516040518082805190602001908083835b602083106122845780518252601f199092019160209182019101612265565b6001836020036101000a038019825116818451168082178552505050505050905001915050602060405180830381855afa1580156122c6573d6000803e3d6000fd5b5050506040513d60208110156122db57600080fd5b8101908080519250505060408801516040516020018085805190602001908083835b6020831061231c5780518252601f1990920191602091820191016122fd565b6001836020036101000a038019825116818451161790925250505091909101905084805190602001908083835b602083106123685780518252601f199092019160209182019101612349565b6001836020036101000a038019825116818451161790925250505091909101848152602001905082805190602001908083835b602083106123ba5780518252601f19909201916020918201910161239b565b6001836020036101000a038019825116818451161790925250505091909101955060409450505050505160208183030381529060405280519060200120613127565b509b9a5050505050505050505050565b6000611967838360405160408082019052601e81527f536166654d6174683a207375627472616374696f6e206f766572666c6f770000602082015261313c565b60008261245b57506000611644565b8282028284828161246857fe5b0414611967576040516000805160206144f683398151915281526004018080602001828103825260218152602001806145166021913960400191505060405180910390fd5b60008282018183128015906124c25750838112155b806124d757506000831280156124d757508381125b611967576040516000805160206144f6833981519152815260040180806020018281038252602181526020018061449a6021913960400191505060405180910390fd5b600081830381831280159061252f5750838113155b80612544575060008312801561254457508381135b611967576040516000805160206144f683398151915281526004018080602001828103825260248152602001806145ad6024913960400191505060405180910390fd5b3b90565b600061164461319e565b606060028054600181600116156101000203166002900480601f0160208091040260200160405190810160405280929190818152602001828054600181600116156101000203166002900480156113105780601f1061260257610100808354040283529160200191611310565b820191906000526020600020905b81548152906001019060200180831161261057509395945050505050565b6000808560458151811061263e57fe5b602001015160f860020a900460f860020a0260f860020a900460ff16600201604401602001905060606020604051818152601f19601f8301168101602001604052908015612693576020820181803883390190505b5090506126a587836020846000612eb2565b50600284876040516020018083805190602001908083835b602083106126dc5780518252601f1990920191602091820191016126bd565b6001836020036101000a038019825116818451161790925250505091909101928352505060200190506040516020818303038152906040526040518082805190602001908083835b602083106127435780518252601f199092019160209182019101612724565b6001836020036101000a038019825116818451168082178552505050505050905001915050602060405180830381855afa158015612785573d6000803e3d6000fd5b5050506040513d602081101561279a57600080fd5b810190808051925060409150505160200180828152602001915050604051602081830303815290604052805190602001208180519060200120146127e357600092505050612c5c565b606087604a8401815181106127f457fe5b602001015160f860020a900460f860020a0260f860020a900460ff16600201604051818152601f19601f830116810160200160405290801561283d576020820181803883390190505b50905061285288846049018351846000612eb2565b5061291c6002826040518082805190602001908083835b602083106128885780518252601f199092019160209182019101612869565b6001836020036101000a038019825116818451168082178552505050505050905001915050602060405180830381855afa1580156128ca573d6000803e3d6000fd5b5050506040513d60208110156128df57600080fd5b81019080805192508991508b905060288701815181106128fb57fe5b602001015160f860020a900460f860020a0260f860020a900460ff166135ab565b61292c5760009350505050612c5c565b60606029604051818152601f19601f830116810160200160405290801561295a576020820181803883390190505b50905061296f89856020016029846000612eb2565b50606060408051818152601f19601f830116810160200160405290801561299d576020820181803883390190505b50905060008351866020016029010160410190506129c38b604083036040856000612eb2565b5060006002836040518082805190602001908083835b602083106129f85780518252601f1990920191602091820191016129d9565b6001836020036101000a038019825116818451168082178552505050505050905001915050602060405180830381855afa158015612a3a573d6000803e3d6000fd5b5050506040513d6020811015612a4f57600080fd5b810190808051935086925083915060409050516020018083805190602001908083835b60208310612a915780518252601f199092019160209182019101612a72565b6001836020036101000a038019825116818451161790925250505091909101928352505060200190506040516020818303038152906040528051906020012060008c8152600360205260409020541415612afc5760008b815260036020526040902060009055612b0c565b6000975050505050505050612c5c565b60606049604051818152601f19601f8301168101602001604052908015612b3a576020820181803883390190505b509050612b4c8d896049846000612eb2565b50612bec6002826040518082805190602001908083835b60208310612b825780518252601f199092019160209182019101612b63565b6001836020036101000a038019825116818451168082178552505050505050905001915050602060405180830381855afa158015612bc4573d6000803e3d6000fd5b5050506040513d6020811015612bd957600080fd5b8101908080519250899150879050613657565b612c0157600098505050505050505050612c5c565b60008281526004602052604090205460ff16612c3f57612c218d846137d9565b6000838152600460205260409020805460ff19169115159190911790555b60008281526004602052604090205460ff16985050505050505050505b949350505050565b60008183612cf8576040516000805160206144f683398151915281526004018080602001828103825283818151815260200191508051906020019080838360005b83811015612cbd578082015183820152602001612ca5565b50505050905090810190601f168015612cea5780820380516001836020036101000a031916815260200191505b509250505060405180910390fd5b50828481612d0257fe5b06949350505050565b600154600090600160a060020a03161580612d385750600154612d3690600160a060020a0316612587565b155b15612d4957612d47600061258b565b505b600154600160a060020a03166338cc48316040518163ffffffff1660e060020a028152600401602060405180830381600087803b158015612d8957600080fd5b505af1158015612d9d573d6000803e3d6000fd5b505050506040513d6020811015612db357600080fd5b810190808051600054600160a060020a039081169116149250612e7491505057600154600160a060020a03166338cc48316040518163ffffffff1660e060020a028152600401602060405180830381600087803b158015612e1357600080fd5b505af1158015612e27573d6000803e3d6000fd5b505050506040513d6020811015612e3d57600080fd5b8101908080516000805473ffffffffffffffffffffffffffffffffffffffff1916600160a060020a03929092169190911790555050505b600054600160a060020a031663abaa5f3e6040518163ffffffff1660e060020a02815260040160206040518083038186803b1580156117f157600080fd5b60608382018084511015612ec557600080fd5b60208087019084015b868860200101821015612eef57818901518682015260209182019101612ece565b5093979650505050505050565b600154600090600160a060020a03161580612f295750600154612f2790600160a060020a0316612587565b155b15612f3a57612f38600061258b565b505b600154600160a060020a03166338cc48316040518163ffffffff1660e060020a028152600401602060405180830381600087803b158015612f7a57600080fd5b505af1158015612f8e573d6000803e3d6000fd5b505050506040513d6020811015612fa457600080fd5b810190808051600054600160a060020a03908116911614925061306591505057600154600160a060020a03166338cc48316040518163ffffffff1660e060020a028152600401602060405180830381600087803b15801561300457600080fd5b505af1158015613018573d6000803e3d6000fd5b505050506040513d602081101561302e57600080fd5b8101908080516000805473ffffffffffffffffffffffffffffffffffffffff1916600160a060020a03929092169190911790555050505b6060600460405190808252806020026020018201604052801561309c57816020015b60608152602001906001900390816130875790505b5090508351816000815181106130ae57fe5b60209081029190910101528360016020020151816001815181106130ce57fe5b60209081029190910101526040840151816002815181106130eb57fe5b602090810291909101015260608401518160038151811061310857fe5b602002602001018190525061311e858285613be4565b95945050505050565b60008281526003602052819060409020555050565b60008184841115613196576040516000805160206144f68339815191528152600401808060200182810382528381815181526020019150805160209091019080838360008315612cbd578082015183820152602001612ca5565b505050900390565b6000806131be731d3b2638a7cc9f2cb3d298a3da7a90b67e5506ed612587565b111561323b576001805473ffffffffffffffffffffffffffffffffffffffff1916731d3b2638a7cc9f2cb3d298a3da7a90b67e5506ed17905561323360405160408082019052600b81527f6574685f6d61696e6e65740000000000000000000000000000000000000000006020820152613fce565b50600161104c565b600061325a73c03a2615d5efaf5f49f60b7bb6583eaec212fdf1612587565b11156132cf576001805473ffffffffffffffffffffffffffffffffffffffff191673c03a2615d5efaf5f49f60b7bb6583eaec212fdf117905561323360405160408082019052600c81527f6574685f726f707374656e3300000000000000000000000000000000000000006020820152613fce565b60006132ee73b7a07bcf2ba2f2703b24c0691b5278999c59ac7e612587565b1115613363576001805473ffffffffffffffffffffffffffffffffffffffff191673b7a07bcf2ba2f2703b24c0691b5278999c59ac7e17905561323360405160408082019052600981527f6574685f6b6f76616e00000000000000000000000000000000000000000000006020820152613fce565b600061338273146500cfd35b22e4a392fe0adc06de1a1368ed48612587565b11156133f7576001805473ffffffffffffffffffffffffffffffffffffffff191673146500cfd35b22e4a392fe0adc06de1a1368ed4817905561323360405160408082019052600b81527f6574685f72696e6b6562790000000000000000000000000000000000000000006020820152613fce565b600061341673a2998efd205fb9d4b4963afb70778d6354ad3a41612587565b111561348b576001805473ffffffffffffffffffffffffffffffffffffffff191673a2998efd205fb9d4b4963afb70778d6354ad3a4117905561323360405160408082019052600a81527f6574685f676f65726c69000000000000000000000000000000000000000000006020820152613fce565b60006134aa736f485c8bf6fc43ea212e93bbf8ce046c7f1cb475612587565b11156134e957506001805473ffffffffffffffffffffffffffffffffffffffff1916736f485c8bf6fc43ea212e93bbf8ce046c7f1cb47517815561104c565b60006135087320e12a1f859b3feae5fb2a0a32c18f5a65555bbf612587565b111561354757506001805473ffffffffffffffffffffffffffffffffffffffff19167320e12a1f859b3feae5fb2a0a32c18f5a65555bbf17815561104c565b60006135667351efaf4c8b3c9afbd5ab9f4bbc82784ab6ef8faa612587565b11156135a557506001805473ffffffffffffffffffffffffffffffffffffffff19167351efaf4c8b3c9afbd5ab9f4bbc82784ab6ef8faa17815561104c565b50600090565b60006001828451146135bc57600080fd5b60005b8381101561364e578481815181106135d357fe5b602001015160f860020a900460f860020a027effffffffffffffffffffffffffffffffffffffffffffffffffffffffffffff191686826020811061361357fe5b1a60f860020a027effffffffffffffffffffffffffffffffffffffffffffffffffffffffffffff19161461364657600091505b6001016135bf565b50949350505050565b600080600080600060606020604051818152601f19601f830116810160200160405290801561368d576020820181803883390190505b50905060006020896003815181106136a157fe5b602001015160f860020a900460f860020a0260f860020a900460ff160360040190506136d289826020856000612eb2565b915060606020604051818152601f19601f8301168101602001604052908015613702576020820181803883390190505b5090506022820191506137498a60208c600186038151811061372057fe5b602001015160f860020a900460f860020a0260f860020a900460ff160384016020846000612eb2565b905060208301519450602081015193506137668b601b8787613fe1565b9097509550600160a060020a0386168980519060200120600160a060020a0316141561379c576001975050505050505050611967565b6137a98b601c8787613fe1565b9097509550600160a060020a0386168980519060200120600160a060020a03161497506119679650505050505050565b60008060608484600101815181106137ed57fe5b602001015160f860020a900460f860020a0260f860020a900460ff16600201604051818152601f19601f8301168101602001604052908015613836576020820181803883390190505b50905061384885858351846000612eb2565b50606060408051818152601f19601f8301168101602001604052908015613876576020820181803883390190505b5090506138898660046040846000612eb2565b5060606062604051818152601f19601f83011681016020016040529080156138b8576020820181803883390190505b50905060f860020a816000815181106138cd57fe5b60200101907effffffffffffffffffffffffffffffffffffffffffffffffffffffffffffff1916908160001a90535061390e87604188036041846001612eb2565b5060606040518060400160405280602081526020017ffd94fa71bc0ba10d39d464d0d8f465efeef0a2764e3887fcc9df41ded20f505c81525090506139598160006020856042612eb2565b506139f96002836040518082805190602001908083835b6020831061398f5780518252601f199092019160209182019101613970565b6001836020036101000a038019825116818451168082178552505050505050905001915050602060405180830381855afa1580156139d1573d6000803e3d6000fd5b5050506040513d60208110156139e657600080fd5b8101908080519250879150869050613657565b945084613a0e57600095505050505050611644565b606060405180606001604052806040815260200161453760409139905060606042604051818152601f19601f8301168101602001604052908015613a59576020820181803883390190505b5090507ffe0000000000000000000000000000000000000000000000000000000000000081600081518110613a8a57fe5b60200101907effffffffffffffffffffffffffffffffffffffffffffffffffffffffffffff1916908160001a905350613ac98a60036041846001612eb2565b5060608a604581518110613ad957fe5b602001015160f860020a900460f860020a0260f860020a900460ff16600201604051818152601f19601f8301168101602001604052908015613b22576020820181803883390190505b509050613b358b60448351846000612eb2565b50613bd56002836040518082805190602001908083835b60208310613b6b5780518252601f199092019160209182019101613b4c565b6001836020036101000a038019825116818451168082178552505050505050905001915050602060405180830381855afa158015613bad573d6000803e3d6000fd5b5050506040513d6020811015613bc257600080fd5b8101908080519250849150869050613657565b9b9a5050505050505050505050565b600154600090600160a060020a03161580613c115750600154613c0f90600160a060020a0316612587565b155b15613c2257613c20600061258b565b505b600154600160a060020a03166338cc48316040518163ffffffff1660e060020a028152600401602060405180830381600087803b158015613c6257600080fd5b505af1158015613c76573d6000803e3d6000fd5b505050506040513d6020811015613c8c57600080fd5b810190808051600054600160a060020a039081169116149250613d4d91505057600154600160a060020a03166338cc48316040518163ffffffff1660e060020a028152600401602060405180830381600087803b158015613cec57600080fd5b505af1158015613d00573d6000803e3d6000fd5b505050506040513d6020811015613d1657600080fd5b8101908080516000805473ffffffffffffffffffffffffffffffffffffffff1916600160a060020a03929092169190911790555050505b60008054600160a060020a0316632ef3accc86856040518363ffffffff1660e060020a0281526004018080602001838152602001828103825284818151815260200191508051906020019080838360005b83811015613db6578082015183820152602001613d9e565b50505050905090810190601f168015613de35780820380516001836020036101000a031916815260200191505b509350505050602060405180830381600087803b158015613e0357600080fd5b505af1158015613e17573d6000803e3d6000fd5b505050506040513d6020811015613e2d57600080fd5b8101908080519350505050670de0b6b3a76400003a840201811115613e56575060009050611967565b6060613e6185614021565b60008054919250600160a060020a039091169063c55c1cb69084908985896040518663ffffffff1660e060020a028152600401808581526020018060200180602001848152602001838103835286818151815260200191508051906020019080838360005b83811015613ede578082015183820152602001613ec6565b50505050905090810190601f168015613f0b5780820380516001836020036101000a031916815260200191505b50838103825285818151815260200191508051906020019080838360005b83811015613f41578082015183820152602001613f29565b50505050905090810190601f168015613f6e5780820380516001836020036101000a031916815260200191505b5096505050505050506020604051808303818588803b158015613f9057600080fd5b505af1158015613fa4573d6000803e3d6000fd5b50505050506040513d6020811015613fbb57600080fd5b8101908080519998505050505050505050565b600281805161091a929160200190614396565b60008060008060405188815287602082015286604082015285606082015260208160808360006001610bb8f1925080519299929850919650505050505050565b606061402b614093565b61403361443a565b61403f8161040061409f565b614048816140cd565b60005b83518110156140805761407884828151811061406357fe5b6020026020010151839063ffffffff6140d816565b60010161404b565b5061408a816140f5565b80519392505050565b60405180590338823950565b8060208106156140b25760208106602003015b60208301819052604051928390526000835290910160405250565b610ff98160046140fc565b6140e58260028351614115565b610d06828263ffffffff61421916565b610ff98160075b61091a82601f602060ff8516021763ffffffff6142b216565b60178111614136576141318360ff8481166020021683176142b2565b610d06565b60ff811161416f57614157836018602060ff8616021763ffffffff6142b216565b6141698382600163ffffffff6142eb16565b50610d06565b61ffff81116141a357614191836019602060ff8616021763ffffffff6142b216565b6141698382600263ffffffff6142eb16565b63ffffffff81116141d9576141c783601a602060ff8616021763ffffffff6142b216565b6141698382600463ffffffff6142eb16565b67ffffffffffffffff8111610d065761420183601b602060ff8616021763ffffffff6142b216565b6142138382600863ffffffff6142eb16565b50505050565b61422161443a565b8260200151835151835101111561424d5761424d836142458560200151855161433f565b600202614356565b60008060008451905085518051602081830101945086510190526020850191505b6020811061428e57815183526020928301929190910190601f190161426e565b60001960208290036101000a01801983511681855116179093525093949350505050565b816020015182515160010111156142d4576142d4828360200151600202614356565b815180516020818301018381535060010190525050565b6142f361443a565b836020015184515183011115614315576143158461424586602001518561433f565b60001961010083900a01845180518481830101868419825116179052909301909252509192915050565b600081831115614350575081611644565b50919050565b606082519050614366838361409f565b6142138382614219565b604051608081016040908152606080835260006020840181905291830182905282015290565b828054600181600116156101000203166002900490600052602060002090601f016020900481019282601f106143d757805160ff1916838001178555614404565b82800160010185558215614404579182015b828111156144045782518255916020019190600101906143e9565b50614410929150614452565b5090565b604051608081016040526004815b60608152602001906001900390816144225790505090565b60405160408082019052606081526000602082015290565b61104c91905b80821115614410576000815560010161445856fe5468652070726f6f6620766572696669636174696f6e206661696c656420696e207468652063616c6c6261636b5369676e6564536166654d6174683a206164646974696f6e206f766572666c6f7755736572206973207374696c6c2077616974696e6720666f72207468652072616e646f6d2066756e6374696f6e20746f2062652070726f6365737308c379a000000000000000000000000000000000000000000000000000000000536166654d6174683a206d756c7469706c69636174696f6e206f766572666c6f777fb956469c5c9b89840d55b43537e66a98dd4811ea0a27224272c2e5622911e8537a2f8e86a46baec82864e98dd01e9ccc2f8bc5dfc9cbe5a91a290498dd96e450726f7661626c65207175657279207761732073656e742c207374616e64696e6720627920666f722074686520616e737765722e2e2e5369676e6564536166654d6174683a207375627472616374696f6e206f766572666c6f77a265627a7a72315820a5410519dde638bbbed891652d2dd8938e993153a633bb8a0424a3debebe2aa164736f6c634300050c0032",
  "source": "pragma solidity ^0.5.0;\n\nimport '../client/node_modules/@openzeppelin/contracts/math/SafeMath.sol';\nimport '../client/node_modules/@openzeppelin/contracts/drafts/SignedSafeMath.sol';\nimport './provableAPI.sol';\n\n\n\n// Import SafeMath library from github (this import only works on Remix).\n// import \"https://github.com/OpenZeppelin/openzeppelin-solidity/contracts/math/SafeMath.sol\";\n// import \"https://github.com/OpenZeppelin/openzeppelin-solidity/contracts/drafts/SignedSafeMath.sol\";\n// import \"github.com/oraclize/ethereum-api/provableAPI.sol\";\n\n\ncontract RobTheBank is usingProvable{\n\n\tusing SafeMath for uint256;\n\tusing SignedSafeMath for int256;\n\n    struct RobberState{\n        bool isAllowToPlay;\n        bool userKnownByTheContract;\n        bytes32 queryId;\n    }\n\n    struct UserInfo{\n        address payable userAddr;\n        address bankAddr;\n        uint256 value;\n        bool status;\n    }\n\n\tmapping (address => RobberState) private RobberInfo;\n\tmapping (bytes32 => UserInfo) private pendingQueries;\n\n\taddress public owner;\n\n    uint256 internal constant MAX_INT_FROM_BYTE = 256;\n    uint256 internal constant NUM_RANDOM_BYTES_REQUESTED = 1;\n\n\tevent ReturnValue(address _sender, uint256 _randomNumber, bool _value);\n\tevent ReturnValue(bytes32 _queryId, uint256 _randomNumber, bool _value);\n\n    /*\n    * Oracle events\n    */\n    event proofFailed(string description);\n    event LogNewProvableQuery(string description, bytes32 _queryId);\n    event generatedRandomNumber(uint256 randomNumber);\n\n    struct Bank {\n        string name;\n        uint256 balance;\n        bool isCreated;\n        bool usingOracle;\n    }\n\n    mapping (address => int256) private userHistory;\n\tmapping(address => Bank) private Banks;\n    address[] public listOfBank;\n\n    event LogListOfBank(string name, address addr, uint256 balance);\n\n\t/* Move Modifier to an other file*/\n\n\tconstructor() public payable{\n//\t\trequire(msg.value >= 0.1 ether);\n\t\towner = msg.sender;\n\n\t\tsetBanks(msg.value, \"FED\", true, true);\n\t\tsetListOfBank(msg.sender);\n\t\temit LogListOfBank(\"FED\", msg.sender, msg.value);\n\t}\n\n\t// add name to the bank Struct\n\tfunction createBank(string memory _name, bool _isUsingOracle) public payable{\n\t\trequire(Banks[msg.sender].isCreated == false, \"You can only own one bank\");\n\t\trequire(bytes(_name).length < 21);\n\t\trequire(bytes(_name).length > 0);\n\t\trequire(msg.value >= 0.1 ether);\n        setBanks(msg.value, _name, true, _isUsingOracle);\n\t\tsetListOfBank(msg.sender);\n\t\temit LogListOfBank(_name, msg.sender, msg.value);\n\t}\n\n    function setBanks(uint256 _balance,\n                      string memory _name,\n                      bool _isCreated,\n                      bool usingOracle)\n                      private {\n\t\tBanks[msg.sender].balance = _balance;\n\t\tBanks[msg.sender].name = _name;\n\t\tBanks[msg.sender].isCreated = _isCreated;\n\t\tBanks[msg.sender].usingOracle = usingOracle;\n    }\n\n    function setListOfBank(address _sender) private{\n        listOfBank.push(_sender);\n    }\n\t\t\n    function getBankLength() view public returns(uint256){\n\t\treturn listOfBank.length;\n\t}\n\n\tfunction getListOfBank() view public returns(address[] memory){\n\t\treturn listOfBank;\n\t}\n\n\t/* Todo test view */\n\tfunction getListOfBankObj() public {\n\t\tfor(uint i=0; i < listOfBank.length; i++){\n\t\t\temit LogListOfBank(\n\t\t\t        getBankName(listOfBank[i]),\n\t\t\t        listOfBank[i],\n\t\t\t        getBankBalance(listOfBank[i])\n\t\t\t     );\n\t\t}\n\t}\n\n\tfunction getBankBalance(address _bankAddr) view public returns(uint256){\n\t\treturn Banks[_bankAddr].balance;\n\t}\n\n\tfunction getBankName(address _bankAddr) view public returns(string memory){\n\t\treturn Banks[_bankAddr].name;\n\t}\n\n\tfunction getBankInfos(address _bankAddr) view public returns(string memory, uint256, bool,bool){\n\t\tBank memory p = Banks[_bankAddr];\n\t\treturn (p.name, p.balance, p.isCreated, p.usingOracle);\n\t}\n\n\t// Get the balance of the user\n\tfunction getUserHistory(address player) view public returns(int256){\n\t\treturn userHistory[player];\n\t}\n\n    function sendMoneyToTheBank() public payable {\n        require(msg.value > 0 ether, \"msg.value can't 0\");\n\t\trequire(Banks[msg.sender].isCreated == true, \"You don't have a bank yet\");\n\n\t\tBanks[msg.sender].balance = Banks[msg.sender].balance.add(msg.value);\n\t}\n\n\tfunction isBankOwner(address _myCall) public view returns (bool){\n\t\tif (Banks[_myCall].isCreated == true)\n\t\t\treturn true;\n\t\treturn false;\n\t}\n\n\tfunction withdrawBankAccount() public payable {\n\t    require(Banks[msg.sender].isCreated == true, \"Bank doesn't exist\");\n\t\trequire(Banks[msg.sender].balance != 0);\n\t\tuint value = Banks[msg.sender].balance;\n\t\tBanks[msg.sender].balance = 0;\n\t\tmsg.sender.transfer(value);\n\t}\n\n    function getCurrentOraclePrice() payable public returns(uint price){\n        price = provable_getPrice(\"Random\");\n        return price;\n    }\n\n    function __callback(bytes32 _queryId, string memory _result, bytes memory _proof) public {\n        require(pendingQueries[_queryId].status);\n        require(msg.sender == provable_cbAddress());\n        if (\n            provable_randomDS_proofVerify__returnCode(\n                _queryId,\n                _result,\n                _proof\n            ) != 0\n        ) {\n            emit proofFailed(\"The proof verification failed in the callback\");\n        } else {\n            uint256 ceiling = (MAX_INT_FROM_BYTE ** NUM_RANDOM_BYTES_REQUESTED) - 1;\n            uint256 firstRes = uint256(keccak256(abi.encodePacked(_result))) % ceiling;\n            uint8 result = uint8(firstRes.mod(251));\n\n            bool flipStatus = flipProcessResult(result, _queryId);\n            emit ReturnValue(_queryId, result, flipStatus);\n            address userAddr =  pendingQueries[_queryId].userAddr;\n            RobberInfo[userAddr].isAllowToPlay = true;\n            delete pendingQueries[_queryId];\n        }\n    }\n\n    function _oracleRandom(address _bankAddr) private{\n        uint256 QUERY_EXECUTION_DELAY = 0;\n        uint256 GAS_FOR_CALLBACK = 200000;\n        bytes32 _queryId =  provable_newRandomDSQuery(\n                                QUERY_EXECUTION_DELAY,\n                                NUM_RANDOM_BYTES_REQUESTED,\n                                GAS_FOR_CALLBACK\n                            );\n        pendingQueries[_queryId].status = true;\n        pendingQueries[_queryId].userAddr = msg.sender;\n        pendingQueries[_queryId].value = msg.value;\n        pendingQueries[_queryId].bankAddr = _bankAddr;\n        RobberInfo[msg.sender].queryId = _queryId;\n        emit LogNewProvableQuery(\"Provable query was sent, standing by for the answer...\", _queryId);\n        \n    }\n\n\t/*\n\t* As the timestamp can be control by the miner we need to set\n\t* a max limit per bet in the flip function.\n\t*/\n\tfunction _pseudoRandom() private view returns (uint8) {\n\t\tuint256 firstRes = uint256(keccak256(abi.encodePacked(block.timestamp, block.difficulty)));\n\t\tuint8 result = uint8(firstRes.mod(251));\n\t\treturn result;\n\t}\n\n    /*\n    *   This function will be called by the standards method\n    */\n    function flipProcessResult(uint8 _randomNumber, address _bankAddr) private returns(bool){\n        bool flipStatus;\n        \n        //TODO ternaire\n        if(_randomNumber % 2 == 0){\n\t\t\tBanks[_bankAddr].balance = Banks[_bankAddr].balance.sub(msg.value);\n\t\t\tmsg.sender.transfer(msg.value.mul(2));\n\t\t\t// Not really safe to cast but the value is high enought to be a problem\n\t\t\tuserHistory[msg.sender] = userHistory[msg.sender].add(int256(msg.value));\n\t\t\tflipStatus = true;\n        } else {\n\t\t\tBanks[_bankAddr].balance = Banks[_bankAddr].balance.add(msg.value);\n\t\t\t// Not really safe to cast but the value is high enought to be a problem\n\t\t\tuserHistory[msg.sender] = userHistory[msg.sender].sub(int256(msg.value));\n\t\t    flipStatus = false;\n\t\t}\n\t\temit ReturnValue(msg.sender, _randomNumber, flipStatus);\n        return flipStatus;\n    }\n\n    /*\n    *   This function will be called by the oracle\n    */\n    function flipProcessResult(uint8 _randomNumber, bytes32 _queryId) private returns(bool){\n        bool flipStatus;\n        address payable _usrAddr = pendingQueries[_queryId].userAddr;\n        address _bankAddr = pendingQueries[_queryId].bankAddr;\n        uint256 _value = pendingQueries[_queryId].value;\n\n        if(_randomNumber % 2 == 0){\n\t\t\tBanks[_bankAddr].balance = Banks[_bankAddr].balance.sub(_value);\n\t\t\t_usrAddr.transfer(msg.value.mul(2));\n\t\t\t// Not really safe to cast but the value is high enought to be a problem\n\t\t\tuserHistory[_usrAddr] = userHistory[_usrAddr].add(int256(_value));\n\t\t\tflipStatus = true;\n\t\t} else {\n\t\t\tBanks[_bankAddr].balance = Banks[_bankAddr].balance.add(_value);\n\t\t\t// Not really safe to cast but the value is high enought to be a problem\n\t\t\tuserHistory[_usrAddr] = userHistory[_usrAddr].sub(int256(_value));\n\t\t    flipStatus = false;\n\t\t}\n        return flipStatus;\n    }\n\n\tfunction flip(address _bankAddr, bool _isBankUsingOracle) public payable{\n\t\t// TODO remove this just need to check than we get money to pay the oracle fee\n\t\trequire(msg.value < 10 ether, \"bet should be less than 10 eth\");\n\n        // Check if the player is still waiting for a responce from a previous game\n        if(RobberInfo[msg.sender].userKnownByTheContract == false){\n            RobberInfo[msg.sender].userKnownByTheContract = true;\n            RobberInfo[msg.sender].isAllowToPlay = true;\n        }\n        require(RobberInfo[msg.sender].isAllowToPlay == true,\n                \"User is still waiting for the random function to be process\");\n        RobberInfo[msg.sender].isAllowToPlay = false;\n\n        // Use a different function regarding if the bank is using an oracle or not\n        if (_isBankUsingOracle == true){\n    \t    _oracleRandom(_bankAddr);\n        } else {\n\t\t    uint8 randomResult = _pseudoRandom();\n            flipProcessResult(randomResult, _bankAddr);\n    \t\tRobberInfo[msg.sender].isAllowToPlay = true;\n        }\n\t}\n\n\tfunction destroyContract() public payable {\n\t    require(owner == msg.sender);\n\t\tselfdestruct(msg.sender);\n\t}\n}",
  "sourcePath": "/home/gabba/git/Dapp/robTheBank/contracts/RobTheBank.sol",
  "compiler": {
    "name": "solc",
    "version": "0.5.12+commit.7709ece9.Emscripten.clang"
  },
  "schemaVersion": "3.0.5",
  "updatedAt": "2020-02-05T12:09:25.715Z",
  "devdoc": {
    "methods": {
      "__callback(bytes32,string)": {
        "details": "The following `__callback` functions are just placeholders ideally     meant to be defined in child contract when proofs are used.     The function bodies simply silence compiler warnings."
      }
    }
  },
  "userdoc": {
    "methods": {}
  }
}